{
  "contractName": "Adoption",
  "abi": [
    {
      "inputs": [],
      "payable": false,
      "stateMutability": "nonpayable",
      "type": "constructor"
    },
    {
      "constant": true,
      "inputs": [],
      "name": "addPetFee",
      "outputs": [
        {
          "internalType": "uint256",
          "name": "",
          "type": "uint256"
        }
      ],
      "payable": false,
      "stateMutability": "view",
      "type": "function"
    },
    {
      "constant": true,
      "inputs": [],
      "name": "adoptedCount",
      "outputs": [
        {
          "internalType": "uint256",
          "name": "",
          "type": "uint256"
        }
      ],
      "payable": false,
      "stateMutability": "view",
      "type": "function"
    },
    {
      "constant": true,
      "inputs": [
        {
          "internalType": "uint256",
          "name": "",
          "type": "uint256"
        }
      ],
      "name": "adoptedPets",
      "outputs": [
        {
          "internalType": "string",
          "name": "name",
          "type": "string"
        },
        {
          "internalType": "uint256",
          "name": "age",
          "type": "uint256"
        },
        {
          "internalType": "uint256",
          "name": "breedId",
          "type": "uint256"
        },
        {
          "internalType": "string",
          "name": "location",
          "type": "string"
        },
        {
          "internalType": "string",
          "name": "image",
          "type": "string"
        },
        {
          "internalType": "address",
          "name": "adopter",
          "type": "address"
        },
        {
          "internalType": "uint256",
          "name": "voteCount",
          "type": "uint256"
        }
      ],
      "payable": false,
      "stateMutability": "view",
      "type": "function"
    },
    {
      "constant": true,
      "inputs": [],
      "name": "breedCount",
      "outputs": [
        {
          "internalType": "uint256",
          "name": "",
          "type": "uint256"
        }
      ],
      "payable": false,
      "stateMutability": "view",
      "type": "function"
    },
    {
      "constant": true,
      "inputs": [
        {
          "internalType": "uint256",
          "name": "",
          "type": "uint256"
        }
      ],
      "name": "breeds",
      "outputs": [
        {
          "internalType": "string",
          "name": "name",
          "type": "string"
        }
      ],
      "payable": false,
      "stateMutability": "view",
      "type": "function"
    },
    {
      "constant": true,
      "inputs": [],
      "name": "owner",
      "outputs": [
        {
          "internalType": "address",
          "name": "",
          "type": "address"
        }
      ],
      "payable": false,
      "stateMutability": "view",
      "type": "function"
    },
    {
      "constant": true,
      "inputs": [],
      "name": "petCount",
      "outputs": [
        {
          "internalType": "uint256",
          "name": "",
          "type": "uint256"
        }
      ],
      "payable": false,
      "stateMutability": "view",
      "type": "function"
    },
    {
      "constant": true,
      "inputs": [
        {
          "internalType": "uint256",
          "name": "",
          "type": "uint256"
        }
      ],
      "name": "pets",
      "outputs": [
        {
          "internalType": "string",
          "name": "name",
          "type": "string"
        },
        {
          "internalType": "uint256",
          "name": "age",
          "type": "uint256"
        },
        {
          "internalType": "uint256",
          "name": "breedId",
          "type": "uint256"
        },
        {
          "internalType": "string",
          "name": "location",
          "type": "string"
        },
        {
          "internalType": "string",
          "name": "image",
          "type": "string"
        },
        {
          "internalType": "address",
          "name": "adopter",
          "type": "address"
        },
        {
          "internalType": "uint256",
          "name": "voteCount",
          "type": "uint256"
        }
      ],
      "payable": false,
      "stateMutability": "view",
      "type": "function"
    },
    {
      "constant": false,
      "inputs": [
        {
          "internalType": "uint256",
          "name": "petId",
          "type": "uint256"
        }
      ],
      "name": "adopt",
      "outputs": [
        {
          "internalType": "uint256",
          "name": "",
          "type": "uint256"
        }
      ],
      "payable": false,
      "stateMutability": "nonpayable",
      "type": "function"
    },
    {
      "constant": false,
      "inputs": [
        {
          "internalType": "uint256",
          "name": "petId",
          "type": "uint256"
        }
      ],
      "name": "returnPet",
      "outputs": [],
      "payable": true,
      "stateMutability": "payable",
      "type": "function"
    },
    {
      "constant": true,
      "inputs": [
        {
          "internalType": "uint256",
          "name": "adoptedPetId",
          "type": "uint256"
        }
      ],
      "name": "getAdoptedPet",
      "outputs": [
        {
          "internalType": "string",
          "name": "name",
          "type": "string"
        },
        {
          "internalType": "uint256",
          "name": "age",
          "type": "uint256"
        },
        {
          "internalType": "uint256",
          "name": "breedId",
          "type": "uint256"
        },
        {
          "internalType": "string",
          "name": "location",
          "type": "string"
        },
        {
          "internalType": "string",
          "name": "image",
          "type": "string"
        },
        {
          "internalType": "address",
          "name": "adopter",
          "type": "address"
        }
      ],
      "payable": false,
      "stateMutability": "view",
      "type": "function"
    },
    {
      "constant": false,
      "inputs": [
        {
          "internalType": "string",
          "name": "name",
          "type": "string"
        },
        {
          "internalType": "uint256",
          "name": "age",
          "type": "uint256"
        },
        {
          "internalType": "uint256",
          "name": "breedId",
          "type": "uint256"
        },
        {
          "internalType": "string",
          "name": "location",
          "type": "string"
        },
        {
          "internalType": "string",
          "name": "image",
          "type": "string"
        }
      ],
      "name": "addNewPet",
      "outputs": [],
      "payable": true,
      "stateMutability": "payable",
      "type": "function"
    },
    {
      "constant": false,
      "inputs": [],
      "name": "withdraw",
      "outputs": [],
      "payable": false,
      "stateMutability": "nonpayable",
      "type": "function"
    },
    {
      "constant": false,
      "inputs": [
        {
          "internalType": "string",
          "name": "name",
          "type": "string"
        }
      ],
      "name": "addBreed",
      "outputs": [],
      "payable": false,
      "stateMutability": "nonpayable",
      "type": "function"
    },
    {
      "constant": true,
      "inputs": [],
      "name": "getPetCount",
      "outputs": [
        {
          "internalType": "uint256",
          "name": "",
          "type": "uint256"
        }
      ],
      "payable": false,
      "stateMutability": "view",
      "type": "function"
    },
    {
      "constant": true,
      "inputs": [],
      "name": "getAdoptedCount",
      "outputs": [
        {
          "internalType": "uint256",
          "name": "",
          "type": "uint256"
        }
      ],
      "payable": false,
      "stateMutability": "view",
      "type": "function"
    },
    {
      "constant": true,
      "inputs": [],
      "name": "getAddPetFee",
      "outputs": [
        {
          "internalType": "uint256",
          "name": "",
          "type": "uint256"
        }
      ],
      "payable": false,
      "stateMutability": "view",
      "type": "function"
    },
    {
      "constant": true,
      "inputs": [
        {
          "internalType": "uint256",
          "name": "petId",
          "type": "uint256"
        }
      ],
      "name": "getPet",
      "outputs": [
        {
          "internalType": "string",
          "name": "name",
          "type": "string"
        },
        {
          "internalType": "uint256",
          "name": "age",
          "type": "uint256"
        },
        {
          "internalType": "uint256",
          "name": "breedId",
          "type": "uint256"
        },
        {
          "internalType": "string",
          "name": "location",
          "type": "string"
        },
        {
          "internalType": "string",
          "name": "image",
          "type": "string"
        },
        {
          "internalType": "address",
          "name": "adopter",
          "type": "address"
        }
      ],
      "payable": false,
      "stateMutability": "view",
      "type": "function"
    },
    {
      "constant": true,
      "inputs": [
        {
          "internalType": "uint256",
          "name": "breedId",
          "type": "uint256"
        }
      ],
      "name": "getBreed",
      "outputs": [
        {
          "internalType": "string",
          "name": "",
          "type": "string"
        }
      ],
      "payable": false,
      "stateMutability": "view",
      "type": "function"
    },
    {
      "constant": false,
      "inputs": [
        {
          "internalType": "uint256",
          "name": "petId",
          "type": "uint256"
        }
      ],
      "name": "voteForPet",
      "outputs": [],
      "payable": false,
      "stateMutability": "nonpayable",
      "type": "function"
    },
    {
      "constant": true,
      "inputs": [
        {
          "internalType": "uint256",
          "name": "petId",
          "type": "uint256"
        }
      ],
      "name": "getVoteCount",
      "outputs": [
        {
          "internalType": "uint256",
          "name": "",
          "type": "uint256"
        }
      ],
      "payable": false,
      "stateMutability": "view",
      "type": "function"
    },
    {
      "constant": false,
      "inputs": [
        {
          "internalType": "string[]",
          "name": "names",
          "type": "string[]"
        },
        {
          "internalType": "uint256[]",
          "name": "ages",
          "type": "uint256[]"
        },
        {
          "internalType": "uint256[]",
          "name": "breedIds",
          "type": "uint256[]"
        },
        {
          "internalType": "string[]",
          "name": "locations",
          "type": "string[]"
        },
        {
          "internalType": "string[]",
          "name": "images",
          "type": "string[]"
        },
        {
          "internalType": "string[]",
          "name": "breedNames",
          "type": "string[]"
        }
      ],
      "name": "initializeData",
      "outputs": [],
      "payable": false,
      "stateMutability": "nonpayable",
      "type": "function"
    },
    {
      "constant": false,
      "inputs": [],
      "name": "donate",
      "outputs": [],
      "payable": true,
      "stateMutability": "payable",
      "type": "function"
    },
    {
      "constant": true,
      "inputs": [],
      "name": "getBalance",
      "outputs": [
        {
          "internalType": "uint256",
          "name": "",
          "type": "uint256"
        }
      ],
      "payable": false,
      "stateMutability": "view",
      "type": "function"
    }
  ],
  "bytecode": "0x608060405267016345785d8a000060005534801561001c57600080fd5b5073756574ae214517069f23287d81b1d30a7248f2f5600160006101000a81548173ffffffffffffffffffffffffffffffffffffffff021916908373ffffffffffffffffffffffffffffffffffffffff160217905550612f92806100816000396000f3fe60806040526004361061014b5760003560e01c8063ab9e2b5d116100b6578063cfb869bf1161006f578063cfb869bf1461049e578063dd22d0c5146104e1578063e37bbc5e1461050a578063e608eb1f14610547578063ed88c68e14610572578063f9e5e46e1461057c5761014b565b8063ab9e2b5d1461039b578063afa61849146103c4578063b2c2f2e8146103ef578063ba42f4261461042c578063bdb92e8e14610457578063cd619f58146104735761014b565b8063535a30e411610108578063535a30e41461026757806354d84c03146102aa57806358e55d2d146102d557806359d55194146102f15780638588b2c5146103335780638da5cb5b146103705761014b565b806306d780661461015057806312065fe01461017b5780632c0209f5146101a65780633ccfd60b146101e35780633fc7a76c146101fa5780634e8933de1461023c575b600080fd5b34801561015c57600080fd5b506101656105a5565b6040516101729190612d92565b60405180910390f35b34801561018757600080fd5b506101906105ab565b60405161019d9190612d92565b60405180910390f35b3480156101b257600080fd5b506101cd60048036036101c89190810190612702565b6105b3565b6040516101da9190612b14565b60405180910390f35b3480156101ef57600080fd5b506101f8610669565b005b34801561020657600080fd5b50610221600480360361021c9190810190612702565b610742565b60405161023396959493929190612b58565b60405180910390f35b34801561024857600080fd5b50610251610a0b565b60405161025e9190612d92565b60405180910390f35b34801561027357600080fd5b5061028e60048036036102899190810190612702565b610a15565b6040516102a19796959493929190612bce565b60405180910390f35b3480156102b657600080fd5b506102bf610c3f565b6040516102cc9190612d92565b60405180910390f35b6102ef60048036036102ea9190810190612643565b610c45565b005b3480156102fd57600080fd5b5061031860048036036103139190810190612702565b610e06565b60405161032a96959493929190612b58565b60405180910390f35b34801561033f57600080fd5b5061035a60048036036103559190810190612702565b6110cf565b6040516103679190612d92565b60405180910390f35b34801561037c57600080fd5b50610385611544565b6040516103929190612af9565b60405180910390f35b3480156103a757600080fd5b506103c260048036036103bd9190810190612602565b61156a565b005b3480156103d057600080fd5b506103d96115c3565b6040516103e69190612d92565b60405180910390f35b3480156103fb57600080fd5b5061041660048036036104119190810190612702565b6115cd565b6040516104239190612d92565b60405180910390f35b34801561043857600080fd5b5061044161163d565b60405161044e9190612d92565b60405180910390f35b610471600480360361046c9190810190612702565b611646565b005b34801561047f57600080fd5b50610488611afa565b6040516104959190612d92565b60405180910390f35b3480156104aa57600080fd5b506104c560048036036104c09190810190612702565b611b00565b6040516104d89796959493929190612bce565b60405180910390f35b3480156104ed57600080fd5b5061050860048036036105039190810190612702565b611d2a565b005b34801561051657600080fd5b50610531600480360361052c9190810190612702565b611e48565b60405161053e9190612b36565b60405180910390f35b34801561055357600080fd5b5061055c611f00565b6040516105699190612d92565b60405180910390f35b61057a611f06565b005b34801561058857600080fd5b506105a3600480360361059e91908101906124e9565b611f4b565b005b60005481565b600047905090565b6003602052806000526040600020600091509050806000018054600181600116156101000203166002900480601f01602080910402602001604051908101604052809291908181526020018280546001816001161561010002031660029004801561065f5780601f106106345761010080835404028352916020019161065f565b820191906000526020600020905b81548152906001019060200180831161064257829003601f168201915b5050505050905081565b600160009054906101000a900473ffffffffffffffffffffffffffffffffffffffff1673ffffffffffffffffffffffffffffffffffffffff163373ffffffffffffffffffffffffffffffffffffffff16146106f9576040517f08c379a00000000000000000000000000000000000000000000000000000000081526004016106f090612c52565b60405180910390fd5b3373ffffffffffffffffffffffffffffffffffffffff166108fc479081150290604051600060405180830381858888f1935050505015801561073f573d6000803e3d6000fd5b50565b6060600080606080600061075461216e565b600460008981526020019081526020016000206040518060e0016040529081600082018054600181600116156101000203166002900480601f01602080910402602001604051908101604052809291908181526020018280546001816001161561010002031660029004801561080b5780601f106107e05761010080835404028352916020019161080b565b820191906000526020600020905b8154815290600101906020018083116107ee57829003601f168201915b505050505081526020016001820154815260200160028201548152602001600382018054600181600116156101000203166002900480601f0160208091040260200160405190810160405280929190818152602001828054600181600116156101000203166002900480156108c15780601f10610896576101008083540402835291602001916108c1565b820191906000526020600020905b8154815290600101906020018083116108a457829003601f168201915b50505050508152602001600482018054600181600116156101000203166002900480601f0160208091040260200160405190810160405280929190818152602001828054600181600116156101000203166002900480156109635780601f1061093857610100808354040283529160200191610963565b820191906000526020600020905b81548152906001019060200180831161094657829003601f168201915b505050505081526020016005820160009054906101000a900473ffffffffffffffffffffffffffffffffffffffff1673ffffffffffffffffffffffffffffffffffffffff1673ffffffffffffffffffffffffffffffffffffffff1681526020016006820154815250509050806000015181602001518260400151836060015184608001518560a001518595508292508191509650965096509650965096505091939550919395565b6000600754905090565b6004602052806000526040600020600091509050806000018054600181600116156101000203166002900480601f016020809104026020016040519081016040528092919081815260200182805460018160011615610100020316600290048015610ac15780601f10610a9657610100808354040283529160200191610ac1565b820191906000526020600020905b815481529060010190602001808311610aa457829003601f168201915b505050505090806001015490806002015490806003018054600181600116156101000203166002900480601f016020809104026020016040519081016040528092919081815260200182805460018160011615610100020316600290048015610b6b5780601f10610b4057610100808354040283529160200191610b6b565b820191906000526020600020905b815481529060010190602001808311610b4e57829003601f168201915b505050505090806004018054600181600116156101000203166002900480601f016020809104026020016040519081016040528092919081815260200182805460018160011615610100020316600290048015610c095780601f10610bde57610100808354040283529160200191610c09565b820191906000526020600020905b815481529060010190602001808311610bec57829003601f168201915b5050505050908060050160009054906101000a900473ffffffffffffffffffffffffffffffffffffffff16908060060154905087565b60055481565b600054341015610c8a576040517f08c379a0000000000000000000000000000000000000000000000000000000008152600401610c8190612c92565b60405180910390fd5b6006548310610cce576040517f08c379a0000000000000000000000000000000000000000000000000000000008152600401610cc590612c72565b60405180910390fd5b6040518060e00160405280868152602001858152602001848152602001838152602001828152602001600073ffffffffffffffffffffffffffffffffffffffff16815260200160008152506002600060075481526020019081526020016000206000820151816000019080519060200190610d4a9291906121c1565b5060208201518160010155604082015181600201556060820151816003019080519060200190610d7b9291906121c1565b506080820151816004019080519060200190610d989291906121c1565b5060a08201518160050160006101000a81548173ffffffffffffffffffffffffffffffffffffffff021916908373ffffffffffffffffffffffffffffffffffffffff16021790555060c082015181600601559050506007600081548092919060010191905055505050505050565b60606000806060806000610e1861216e565b600260008981526020019081526020016000206040518060e0016040529081600082018054600181600116156101000203166002900480601f016020809104026020016040519081016040528092919081815260200182805460018160011615610100020316600290048015610ecf5780601f10610ea457610100808354040283529160200191610ecf565b820191906000526020600020905b815481529060010190602001808311610eb257829003601f168201915b505050505081526020016001820154815260200160028201548152602001600382018054600181600116156101000203166002900480601f016020809104026020016040519081016040528092919081815260200182805460018160011615610100020316600290048015610f855780601f10610f5a57610100808354040283529160200191610f85565b820191906000526020600020905b815481529060010190602001808311610f6857829003601f168201915b50505050508152602001600482018054600181600116156101000203166002900480601f0160208091040260200160405190810160405280929190818152602001828054600181600116156101000203166002900480156110275780601f10610ffc57610100808354040283529160200191611027565b820191906000526020600020905b81548152906001019060200180831161100a57829003601f168201915b505050505081526020016005820160009054906101000a900473ffffffffffffffffffffffffffffffffffffffff1673ffffffffffffffffffffffffffffffffffffffff1673ffffffffffffffffffffffffffffffffffffffff1681526020016006820154815250509050806000015181602001518260400151836060015184608001518560a001518595508292508191509650965096509650965096505091939550919395565b60008082101580156110e2575060075482105b611121576040517f08c379a000000000000000000000000000000000000000000000000000000000815260040161111890612cf2565b60405180910390fd5b600073ffffffffffffffffffffffffffffffffffffffff166002600084815260200190815260200160002060050160009054906101000a900473ffffffffffffffffffffffffffffffffffffffff1673ffffffffffffffffffffffffffffffffffffffff16146111c6576040517f08c379a00000000000000000000000000000000000000000000000000000000081526004016111bd90612d52565b60405180910390fd5b336002600084815260200190815260200160002060050160006101000a81548173ffffffffffffffffffffffffffffffffffffffff021916908373ffffffffffffffffffffffffffffffffffffffff160217905550600260008381526020019081526020016000206004600060055481526020019081526020016000206000820181600001908054600181600116156101000203166002900461126a929190612241565b506001820154816001015560028201548160020155600382018160030190805460018160011615610100020316600290046112a6929190612241565b50600482018160040190805460018160011615610100020316600290046112ce929190612241565b506005820160009054906101000a900473ffffffffffffffffffffffffffffffffffffffff168160050160006101000a81548173ffffffffffffffffffffffffffffffffffffffff021916908373ffffffffffffffffffffffffffffffffffffffff1602179055506006820154816006015590505060056000815480929190600101919050555060008290505b60016007540381101561149e576002600060018301815260200190815260200160002060026000838152602001908152602001600020600082018160000190805460018160011615610100020316600290046113b8929190612241565b506001820154816001015560028201548160020155600382018160030190805460018160011615610100020316600290046113f4929190612241565b506004820181600401908054600181600116156101000203166002900461141c929190612241565b506005820160009054906101000a900473ffffffffffffffffffffffffffffffffffffffff168160050160006101000a81548173ffffffffffffffffffffffffffffffffffffffff021916908373ffffffffffffffffffffffffffffffffffffffff16021790555060068201548160060155905050808060010191505061135b565b50600260006001600754038152602001908152602001600020600080820160006114c891906122c8565b600182016000905560028201600090556003820160006114e891906122c8565b6004820160006114f891906122c8565b6005820160006101000a81549073ffffffffffffffffffffffffffffffffffffffff02191690556006820160009055505060076000815480929190600190039190505550819050919050565b600160009054906101000a900473ffffffffffffffffffffffffffffffffffffffff1681565b60405180602001604052808281525060036000600654815260200190815260200160002060008201518160000190805190602001906115aa9291906121c1565b5090505060066000815480929190600101919050555050565b6000600554905090565b60008082101580156115e0575060075482105b61161f576040517f08c379a000000000000000000000000000000000000000000000000000000000815260040161161690612cd2565b60405180910390fd5b60026000838152602001908152602001600020600601549050919050565b60008054905090565b60008110158015611658575060055481105b611697576040517f08c379a000000000000000000000000000000000000000000000000000000000815260040161168e90612cd2565b60405180910390fd5b3373ffffffffffffffffffffffffffffffffffffffff166004600083815260200190815260200160002060050160009054906101000a900473ffffffffffffffffffffffffffffffffffffffff1673ffffffffffffffffffffffffffffffffffffffff161461173b576040517f08c379a000000000000000000000000000000000000000000000000000000000815260040161173290612d12565b60405180910390fd5b600054341015611780576040517f08c379a000000000000000000000000000000000000000000000000000000000815260040161177790612d72565b60405180910390fd5b60006004600083815260200190815260200160002060050160006101000a81548173ffffffffffffffffffffffffffffffffffffffff021916908373ffffffffffffffffffffffffffffffffffffffff1602179055506004600082815260200190815260200160002060026000600754815260200190815260200160002060008201816000019080546001816001161561010002031660029004611825929190612241565b50600182015481600101556002820154816002015560038201816003019080546001816001161561010002031660029004611861929190612241565b5060048201816004019080546001816001161561010002031660029004611889929190612241565b506005820160009054906101000a900473ffffffffffffffffffffffffffffffffffffffff168160050160006101000a81548173ffffffffffffffffffffffffffffffffffffffff021916908373ffffffffffffffffffffffffffffffffffffffff1602179055506006820154816006015590505060076000815480929190600101919050555060008190505b600160055403811015611a5957600460006001830181526020019081526020016000206004600083815260200190815260200160002060008201816000019080546001816001161561010002031660029004611973929190612241565b506001820154816001015560028201548160020155600382018160030190805460018160011615610100020316600290046119af929190612241565b50600482018160040190805460018160011615610100020316600290046119d7929190612241565b506005820160009054906101000a900473ffffffffffffffffffffffffffffffffffffffff168160050160006101000a81548173ffffffffffffffffffffffffffffffffffffffff021916908373ffffffffffffffffffffffffffffffffffffffff160217905550600682015481600601559050508080600101915050611916565b5060046000600160055403815260200190815260200160002060008082016000611a8391906122c8565b60018201600090556002820160009055600382016000611aa391906122c8565b600482016000611ab391906122c8565b6005820160006101000a81549073ffffffffffffffffffffffffffffffffffffffff0219169055600682016000905550506005600081548092919060019003919050555050565b60075481565b6002602052806000526040600020600091509050806000018054600181600116156101000203166002900480601f016020809104026020016040519081016040528092919081815260200182805460018160011615610100020316600290048015611bac5780601f10611b8157610100808354040283529160200191611bac565b820191906000526020600020905b815481529060010190602001808311611b8f57829003601f168201915b505050505090806001015490806002015490806003018054600181600116156101000203166002900480601f016020809104026020016040519081016040528092919081815260200182805460018160011615610100020316600290048015611c565780601f10611c2b57610100808354040283529160200191611c56565b820191906000526020600020905b815481529060010190602001808311611c3957829003601f168201915b505050505090806004018054600181600116156101000203166002900480601f016020809104026020016040519081016040528092919081815260200182805460018160011615610100020316600290048015611cf45780601f10611cc957610100808354040283529160200191611cf4565b820191906000526020600020905b815481529060010190602001808311611cd757829003601f168201915b5050505050908060050160009054906101000a900473ffffffffffffffffffffffffffffffffffffffff16908060060154905087565b60008110158015611d3c575060075481105b611d7b576040517f08c379a0000000000000000000000000000000000000000000000000000000008152600401611d7290612cd2565b60405180910390fd5b600073ffffffffffffffffffffffffffffffffffffffff166002600083815260200190815260200160002060050160009054906101000a900473ffffffffffffffffffffffffffffffffffffffff1673ffffffffffffffffffffffffffffffffffffffff1614611e20576040517f08c379a0000000000000000000000000000000000000000000000000000000008152600401611e1790612d32565b60405180910390fd5b6001600260008381526020019081526020016000206006016000828254019250508190555050565b6060600360008381526020019081526020016000206000018054600181600116156101000203166002900480601f016020809104026020016040519081016040528092919081815260200182805460018160011615610100020316600290048015611ef45780601f10611ec957610100808354040283529160200191611ef4565b820191906000526020600020905b815481529060010190602001808311611ed757829003601f168201915b50505050509050919050565b60065481565b60003411611f49576040517f08c379a0000000000000000000000000000000000000000000000000000000008152600401611f4090612cb2565b60405180910390fd5b565b60008090505b8151811015611fbc576040518060200160405280838381518110611f7157fe5b6020026020010151815250600360008381526020019081526020016000206000820151816000019080519060200190611fab9291906121c1565b509050508080600101915050611f51565b50805160068190555060008090505b865181101561215d576040518060e00160405280888381518110611feb57fe5b6020026020010151815260200187838151811061200457fe5b6020026020010151815260200186838151811061201d57fe5b6020026020010151815260200185838151811061203657fe5b6020026020010151815260200184838151811061204f57fe5b60200260200101518152602001600073ffffffffffffffffffffffffffffffffffffffff16815260200160008152506002600083815260200190815260200160002060008201518160000190805190602001906120ad9291906121c1565b50602082015181600101556040820151816002015560608201518160030190805190602001906120de9291906121c1565b5060808201518160040190805190602001906120fb9291906121c1565b5060a08201518160050160006101000a81548173ffffffffffffffffffffffffffffffffffffffff021916908373ffffffffffffffffffffffffffffffffffffffff16021790555060c082015181600601559050508080600101915050611fcb565b508551600781905550505050505050565b6040518060e001604052806060815260200160008152602001600081526020016060815260200160608152602001600073ffffffffffffffffffffffffffffffffffffffff168152602001600081525090565b828054600181600116156101000203166002900490600052602060002090601f016020900481019282601f1061220257805160ff1916838001178555612230565b82800160010185558215612230579182015b8281111561222f578251825591602001919060010190612214565b5b50905061223d9190612310565b5090565b828054600181600116156101000203166002900490600052602060002090601f016020900481019282601f1061227a57805485556122b7565b828001600101855582156122b757600052602060002091601f016020900482015b828111156122b657825482559160010191906001019061229b565b5b5090506122c49190612310565b5090565b50805460018160011615610100020316600290046000825580601f106122ee575061230d565b601f01602090049060005260206000209081019061230c9190612310565b5b50565b61233291905b8082111561232e576000816000905550600101612316565b5090565b90565b600082601f83011261234657600080fd5b813561235961235482612dda565b612dad565b9150818183526020840193506020810190508360005b8381101561239f5781358601612385888261242c565b84526020840193506020830192505060018101905061236f565b5050505092915050565b600082601f8301126123ba57600080fd5b81356123cd6123c882612e02565b612dad565b915081818352602084019350602081019050838560208402820111156123f257600080fd5b60005b83811015612422578161240888826124d4565b8452602084019350602083019250506001810190506123f5565b5050505092915050565b600082601f83011261243d57600080fd5b813561245061244b82612e2a565b612dad565b9150808252602083016020830185838301111561246c57600080fd5b612477838284612ee5565b50505092915050565b600082601f83011261249157600080fd5b81356124a461249f82612e56565b612dad565b915080825260208301602083018583830111156124c057600080fd5b6124cb838284612ee5565b50505092915050565b6000813590506124e381612f38565b92915050565b60008060008060008060c0878903121561250257600080fd5b600087013567ffffffffffffffff81111561251c57600080fd5b61252889828a01612335565b965050602087013567ffffffffffffffff81111561254557600080fd5b61255189828a016123a9565b955050604087013567ffffffffffffffff81111561256e57600080fd5b61257a89828a016123a9565b945050606087013567ffffffffffffffff81111561259757600080fd5b6125a389828a01612335565b935050608087013567ffffffffffffffff8111156125c057600080fd5b6125cc89828a01612335565b92505060a087013567ffffffffffffffff8111156125e957600080fd5b6125f589828a01612335565b9150509295509295509295565b60006020828403121561261457600080fd5b600082013567ffffffffffffffff81111561262e57600080fd5b61263a84828501612480565b91505092915050565b600080600080600060a0868803121561265b57600080fd5b600086013567ffffffffffffffff81111561267557600080fd5b61268188828901612480565b9550506020612692888289016124d4565b94505060406126a3888289016124d4565b935050606086013567ffffffffffffffff8111156126c057600080fd5b6126cc88828901612480565b925050608086013567ffffffffffffffff8111156126e957600080fd5b6126f588828901612480565b9150509295509295909350565b60006020828403121561271457600080fd5b6000612722848285016124d4565b91505092915050565b61273481612ea9565b82525050565b600061274582612e8d565b61274f8185612e98565b935061275f818560208601612ef4565b61276881612f27565b840191505092915050565b600061277e82612e82565b6127888185612e98565b9350612798818560208601612ef4565b6127a181612f27565b840191505092915050565b60006127b9602183612e98565b91507f4f6e6c7920746865206f776e65722063616e2077697468647261772066756e6460008301527f73000000000000000000000000000000000000000000000000000000000000006020830152604082019050919050565b600061281f601083612e98565b91507f496e76616c6964206272656564204944000000000000000000000000000000006000830152602082019050919050565b600061285f602c83612e98565b91507f496e73756666696369656e742045746865722073656e7420666f72206164646960008301527f6e672061206e65772070657400000000000000000000000000000000000000006020830152604082019050919050565b60006128c5602283612e98565b91507f446f6e6174696f6e206d7573742062652067726561746572207468616e207a6560008301527f726f0000000000000000000000000000000000000000000000000000000000006020830152604082019050919050565b600061292b600e83612e98565b91507f496e76616c6964207065742049440000000000000000000000000000000000006000830152602082019050919050565b600061296b600d83612e98565b91507f496e76616c6964207065744964000000000000000000000000000000000000006000830152602082019050919050565b60006129ab602383612e98565b91507f4f6e6c79207468652061646f707465722063616e2072657475726e207468652060008301527f70657400000000000000000000000000000000000000000000000000000000006020830152604082019050919050565b6000612a11601c83612e98565b91507f43616e6e6f7420766f746520666f722061646f707465642070657473000000006000830152602082019050919050565b6000612a51601383612e98565b91507f50657420616c72656164792061646f70746564000000000000000000000000006000830152602082019050919050565b6000612a91602283612e98565b91507f496e73756666696369656e742045746865722073656e7420666f72207265747560008301527f726e0000000000000000000000000000000000000000000000000000000000006020830152604082019050919050565b612af381612edb565b82525050565b6000602082019050612b0e600083018461272b565b92915050565b60006020820190508181036000830152612b2e8184612773565b905092915050565b60006020820190508181036000830152612b50818461273a565b905092915050565b600060c0820190508181036000830152612b72818961273a565b9050612b816020830188612aea565b612b8e6040830187612aea565b8181036060830152612ba0818661273a565b90508181036080830152612bb4818561273a565b9050612bc360a083018461272b565b979650505050505050565b600060e0820190508181036000830152612be8818a612773565b9050612bf76020830189612aea565b612c046040830188612aea565b8181036060830152612c168187612773565b90508181036080830152612c2a8186612773565b9050612c3960a083018561272b565b612c4660c0830184612aea565b98975050505050505050565b60006020820190508181036000830152612c6b816127ac565b9050919050565b60006020820190508181036000830152612c8b81612812565b9050919050565b60006020820190508181036000830152612cab81612852565b9050919050565b60006020820190508181036000830152612ccb816128b8565b9050919050565b60006020820190508181036000830152612ceb8161291e565b9050919050565b60006020820190508181036000830152612d0b8161295e565b9050919050565b60006020820190508181036000830152612d2b8161299e565b9050919050565b60006020820190508181036000830152612d4b81612a04565b9050919050565b60006020820190508181036000830152612d6b81612a44565b9050919050565b60006020820190508181036000830152612d8b81612a84565b9050919050565b6000602082019050612da76000830184612aea565b92915050565b6000604051905081810181811067ffffffffffffffff82111715612dd057600080fd5b8060405250919050565b600067ffffffffffffffff821115612df157600080fd5b602082029050602081019050919050565b600067ffffffffffffffff821115612e1957600080fd5b602082029050602081019050919050565b600067ffffffffffffffff821115612e4157600080fd5b601f19601f8301169050602081019050919050565b600067ffffffffffffffff821115612e6d57600080fd5b601f19601f8301169050602081019050919050565b600081519050919050565b600081519050919050565b600082825260208201905092915050565b6000612eb482612ebb565b9050919050565b600073ffffffffffffffffffffffffffffffffffffffff82169050919050565b6000819050919050565b82818337600083830152505050565b60005b83811015612f12578082015181840152602081019050612ef7565b83811115612f21576000848401525b50505050565b6000601f19601f8301169050919050565b612f4181612edb565b8114612f4c57600080fd5b5056fea365627a7a723158204ee1c5ac51985a0be6891e6e0d2b5455b64938d89477f72e4388515aa74faff66c6578706572696d656e74616cf564736f6c63430005100040",
  "source": "pragma solidity ^0.5.0;\npragma experimental ABIEncoderV2;\n\ncontract Adoption {\n    struct Pet {\n        string name;\n        uint age;\n        uint breedId;\n        string location;\n        string image; // URL or IPFS hash for the pet's image\n        address adopter;\n        uint voteCount; // Add vote count\n    }\n\n    struct Breed {\n        string name;\n    }\n\n    uint public addPetFee = 0.1 ether; // Fee for adding a new pet\n    address public owner;\n\n    constructor() public {\n        owner = 0x756574ae214517069F23287d81b1D30A7248F2F5; // has a fixed address\n    }\n\n    mapping(uint => Pet) public pets; // Mapping of petId to Pet details\n    mapping(uint => Breed) public breeds; // Mapping of breedId to Breed details\n    mapping(uint => Pet) public adoptedPets; // Store adopted pets\n    uint public adoptedCount; // Keep track of the number of adopted pets\n    uint public breedCount; // Number of breeds\n    uint public petCount;   // Number of pets\n\n    // Adopting a pet\n    function adopt(uint petId) public returns (uint) {\n        require(petId >= 0 && petId < petCount, \"Invalid petId\");\n        require(pets[petId].adopter == address(0), \"Pet already adopted\");\n\n        pets[petId].adopter = msg.sender;\n\n        // Move pet to adoptedPets mapping\n        adoptedPets[adoptedCount] = pets[petId];\n        adoptedCount++;\n\n        // Shift the remaining IDs to fill the gap\n        for (uint j = petId; j < petCount - 1; j++) {\n            pets[j] = pets[j + 1];\n        }\n        delete pets[petCount - 1];\n        petCount--;\n\n        return petId;\n    }\n\n    function returnPet(uint petId) public payable {\n        require(petId >= 0 && petId < adoptedCount, \"Invalid pet ID\");\n        require(adoptedPets[petId].adopter == msg.sender, \"Only the adopter can return the pet\");\n        require(msg.value >= addPetFee, \"Insufficient Ether sent for return\");\n\n        // Remove the adopter\n        adoptedPets[petId].adopter = address(0);\n\n        // Add the pet back to the available list\n        pets[petCount] = adoptedPets[petId];\n        petCount++;\n\n        for (uint j = petId; j < adoptedCount - 1; j++) {\n            adoptedPets[j] = adoptedPets[j + 1];\n        }\n        delete adoptedPets[adoptedCount - 1];\n        adoptedCount--;\n\n    }\n\n    function getAdoptedPet(uint adoptedPetId) public view returns (\n        string memory name,\n        uint age,\n        uint breedId,\n        string memory location,\n        string memory image,\n        address adopter\n    ) {\n        Pet memory pet = adoptedPets[adoptedPetId];\n        return (pet.name, pet.age, pet.breedId, pet.location, pet.image, pet.adopter);\n    }\n\n\n    function addNewPet(\n        string memory name,\n        uint age,\n        uint breedId,\n        string memory location,\n        string memory image\n    ) public payable {\n        require(msg.value >= addPetFee, \"Insufficient Ether sent for adding a new pet\");\n        require(breedId < breedCount, \"Invalid breed ID\");\n\n        // Add new pet to the pets mapping\n        pets[petCount] = Pet(name, age, breedId, location, image, address(0), 0);\n        petCount++;\n    }\n\n    function withdraw() public {\n        require(msg.sender == owner, \"Only the owner can withdraw funds\");\n        msg.sender.transfer(address(this).balance);\n    }\n\n    function addBreed(string memory name) public {\n        breeds[breedCount] = Breed(name);\n        breedCount++;\n    }\n\n    // Get the total number of pets\n    function getPetCount() public view returns (uint) {\n        return petCount;\n    }\n\n    function getAdoptedCount() public view returns (uint) {\n        return adoptedCount;\n    }\n\n    function getAddPetFee() public view returns (uint) {\n        return addPetFee;\n    }\n\n    // Retrieve all pet details\n    function getPet(uint petId) public view returns (\n        string memory name,\n        uint age,\n        uint breedId,\n        string memory location,\n        string memory image,\n        address adopter\n    ) {\n        Pet memory pet = pets[petId];\n        return (pet.name, pet.age, pet.breedId, pet.location, pet.image, pet.adopter);\n    }\n\n    // Retrieve breed name\n    function getBreed(uint breedId) public view returns (string memory) {\n        return breeds[breedId].name;\n    }\n\n    function voteForPet(uint petId) public {\n        require(petId >= 0 && petId < petCount, \"Invalid pet ID\");\n        require(pets[petId].adopter == address(0), \"Cannot vote for adopted pets\");\n\n        pets[petId].voteCount += 1;\n    }\n\n    function getVoteCount(uint petId) public view returns (uint) {\n        require(petId >= 0 && petId < petCount, \"Invalid pet ID\");\n\n        return pets[petId].voteCount;\n    }\n\n    // Admin function to initialize pets and breeds\n    function initializeData(\n        string[] memory names,\n        uint[] memory ages,\n        uint[] memory breedIds,\n        string[] memory locations,\n        string[] memory images,\n        string[] memory breedNames\n    ) public {\n        // Initialize breeds\n        for (uint i = 0; i < breedNames.length; i++) {\n            breeds[i] = Breed(breedNames[i]);\n        }\n        breedCount = breedNames.length;\n\n        // Initialize pets\n        for (uint i = 0; i < names.length; i++) {\n            pets[i] = Pet(names[i], ages[i], breedIds[i], locations[i], images[i], address(0), 0);\n        }\n        petCount = names.length;\n    }\n\n    function donate() public payable {\n        require(msg.value > 0, \"Donation must be greater than zero\");\n    }\n\n    function getBalance() public view returns (uint) {\n        return address(this).balance;\n    }\n}\n",
  "sourcePath": "D:/Projects/aps1050/A7/pet-shop-box-master/contracts/Adoption.sol",
  "compiler": {
    "name": "solc",
    "version": "0.5.16+commit.9c3226ce.Emscripten.clang"
  },
  "schemaVersion": "3.0.22",
  "updatedAt": "2024-12-12T08:46:22.596Z",
  "networkType": "ethereum",
  "devdoc": {
    "methods": {}
  },
  "userdoc": {
    "methods": {}
  }
}