{
  "contractName": "Adoption",
  "abi": [
    {
      "inputs": [],
      "payable": false,
      "stateMutability": "nonpayable",
      "type": "constructor"
    },
    {
      "constant": true,
      "inputs": [],
      "name": "addPetFee",
      "outputs": [
        {
          "internalType": "uint256",
          "name": "",
          "type": "uint256"
        }
      ],
      "payable": false,
      "stateMutability": "view",
      "type": "function"
    },
    {
      "constant": true,
      "inputs": [],
      "name": "adoptedCount",
      "outputs": [
        {
          "internalType": "uint256",
          "name": "",
          "type": "uint256"
        }
      ],
      "payable": false,
      "stateMutability": "view",
      "type": "function"
    },
    {
      "constant": true,
      "inputs": [
        {
          "internalType": "uint256",
          "name": "",
          "type": "uint256"
        }
      ],
      "name": "adoptedPets",
      "outputs": [
        {
          "internalType": "string",
          "name": "name",
          "type": "string"
        },
        {
          "internalType": "uint256",
          "name": "age",
          "type": "uint256"
        },
        {
          "internalType": "uint256",
          "name": "breedId",
          "type": "uint256"
        },
        {
          "internalType": "string",
          "name": "location",
          "type": "string"
        },
        {
          "internalType": "string",
          "name": "image",
          "type": "string"
        },
        {
          "internalType": "address",
          "name": "adopter",
          "type": "address"
        }
      ],
      "payable": false,
      "stateMutability": "view",
      "type": "function"
    },
    {
      "constant": true,
      "inputs": [],
      "name": "breedCount",
      "outputs": [
        {
          "internalType": "uint256",
          "name": "",
          "type": "uint256"
        }
      ],
      "payable": false,
      "stateMutability": "view",
      "type": "function"
    },
    {
      "constant": true,
      "inputs": [
        {
          "internalType": "uint256",
          "name": "",
          "type": "uint256"
        }
      ],
      "name": "breeds",
      "outputs": [
        {
          "internalType": "string",
          "name": "name",
          "type": "string"
        }
      ],
      "payable": false,
      "stateMutability": "view",
      "type": "function"
    },
    {
      "constant": true,
      "inputs": [],
      "name": "owner",
      "outputs": [
        {
          "internalType": "address",
          "name": "",
          "type": "address"
        }
      ],
      "payable": false,
      "stateMutability": "view",
      "type": "function"
    },
    {
      "constant": true,
      "inputs": [],
      "name": "petCount",
      "outputs": [
        {
          "internalType": "uint256",
          "name": "",
          "type": "uint256"
        }
      ],
      "payable": false,
      "stateMutability": "view",
      "type": "function"
    },
    {
      "constant": true,
      "inputs": [
        {
          "internalType": "uint256",
          "name": "",
          "type": "uint256"
        }
      ],
      "name": "pets",
      "outputs": [
        {
          "internalType": "string",
          "name": "name",
          "type": "string"
        },
        {
          "internalType": "uint256",
          "name": "age",
          "type": "uint256"
        },
        {
          "internalType": "uint256",
          "name": "breedId",
          "type": "uint256"
        },
        {
          "internalType": "string",
          "name": "location",
          "type": "string"
        },
        {
          "internalType": "string",
          "name": "image",
          "type": "string"
        },
        {
          "internalType": "address",
          "name": "adopter",
          "type": "address"
        }
      ],
      "payable": false,
      "stateMutability": "view",
      "type": "function"
    },
    {
      "constant": false,
      "inputs": [
        {
          "internalType": "uint256",
          "name": "petId",
          "type": "uint256"
        }
      ],
      "name": "adopt",
      "outputs": [
        {
          "internalType": "uint256",
          "name": "",
          "type": "uint256"
        }
      ],
      "payable": false,
      "stateMutability": "nonpayable",
      "type": "function"
    },
    {
      "constant": true,
      "inputs": [
        {
          "internalType": "uint256",
          "name": "adoptedPetId",
          "type": "uint256"
        }
      ],
      "name": "getAdoptedPet",
      "outputs": [
        {
          "internalType": "string",
          "name": "name",
          "type": "string"
        },
        {
          "internalType": "uint256",
          "name": "age",
          "type": "uint256"
        },
        {
          "internalType": "uint256",
          "name": "breedId",
          "type": "uint256"
        },
        {
          "internalType": "string",
          "name": "location",
          "type": "string"
        },
        {
          "internalType": "string",
          "name": "image",
          "type": "string"
        },
        {
          "internalType": "address",
          "name": "adopter",
          "type": "address"
        }
      ],
      "payable": false,
      "stateMutability": "view",
      "type": "function"
    },
    {
      "constant": false,
      "inputs": [
        {
          "internalType": "string",
          "name": "name",
          "type": "string"
        },
        {
          "internalType": "uint256",
          "name": "age",
          "type": "uint256"
        },
        {
          "internalType": "uint256",
          "name": "breedId",
          "type": "uint256"
        },
        {
          "internalType": "string",
          "name": "location",
          "type": "string"
        },
        {
          "internalType": "string",
          "name": "image",
          "type": "string"
        }
      ],
      "name": "addNewPet",
      "outputs": [],
      "payable": true,
      "stateMutability": "payable",
      "type": "function"
    },
    {
      "constant": false,
      "inputs": [],
      "name": "withdraw",
      "outputs": [],
      "payable": false,
      "stateMutability": "nonpayable",
      "type": "function"
    },
    {
      "constant": false,
      "inputs": [
        {
          "internalType": "string",
          "name": "name",
          "type": "string"
        }
      ],
      "name": "addBreed",
      "outputs": [],
      "payable": false,
      "stateMutability": "nonpayable",
      "type": "function"
    },
    {
      "constant": true,
      "inputs": [],
      "name": "getPetCount",
      "outputs": [
        {
          "internalType": "uint256",
          "name": "",
          "type": "uint256"
        }
      ],
      "payable": false,
      "stateMutability": "view",
      "type": "function"
    },
    {
      "constant": true,
      "inputs": [],
      "name": "getAdoptedCount",
      "outputs": [
        {
          "internalType": "uint256",
          "name": "",
          "type": "uint256"
        }
      ],
      "payable": false,
      "stateMutability": "view",
      "type": "function"
    },
    {
      "constant": true,
      "inputs": [],
      "name": "getAddPetFee",
      "outputs": [
        {
          "internalType": "uint256",
          "name": "",
          "type": "uint256"
        }
      ],
      "payable": false,
      "stateMutability": "view",
      "type": "function"
    },
    {
      "constant": true,
      "inputs": [
        {
          "internalType": "uint256",
          "name": "petId",
          "type": "uint256"
        }
      ],
      "name": "getPet",
      "outputs": [
        {
          "internalType": "string",
          "name": "name",
          "type": "string"
        },
        {
          "internalType": "uint256",
          "name": "age",
          "type": "uint256"
        },
        {
          "internalType": "uint256",
          "name": "breedId",
          "type": "uint256"
        },
        {
          "internalType": "string",
          "name": "location",
          "type": "string"
        },
        {
          "internalType": "string",
          "name": "image",
          "type": "string"
        },
        {
          "internalType": "address",
          "name": "adopter",
          "type": "address"
        }
      ],
      "payable": false,
      "stateMutability": "view",
      "type": "function"
    },
    {
      "constant": true,
      "inputs": [
        {
          "internalType": "uint256",
          "name": "breedId",
          "type": "uint256"
        }
      ],
      "name": "getBreed",
      "outputs": [
        {
          "internalType": "string",
          "name": "",
          "type": "string"
        }
      ],
      "payable": false,
      "stateMutability": "view",
      "type": "function"
    },
    {
      "constant": false,
      "inputs": [
        {
          "internalType": "string[]",
          "name": "names",
          "type": "string[]"
        },
        {
          "internalType": "uint256[]",
          "name": "ages",
          "type": "uint256[]"
        },
        {
          "internalType": "uint256[]",
          "name": "breedIds",
          "type": "uint256[]"
        },
        {
          "internalType": "string[]",
          "name": "locations",
          "type": "string[]"
        },
        {
          "internalType": "string[]",
          "name": "images",
          "type": "string[]"
        },
        {
          "internalType": "string[]",
          "name": "breedNames",
          "type": "string[]"
        }
      ],
      "name": "initializeData",
      "outputs": [],
      "payable": false,
      "stateMutability": "nonpayable",
      "type": "function"
    }
  ],
  "bytecode": "0x608060405267016345785d8a000060005534801561001c57600080fd5b5073756574ae214517069f23287d81b1d30a7248f2f5600160006101000a81548173ffffffffffffffffffffffffffffffffffffffff021916908373ffffffffffffffffffffffffffffffffffffffff16021790555061254e806100816000396000f3fe6080604052600436106101145760003560e01c80638588b2c5116100a0578063cd619f5811610064578063cd619f58146103b7578063cfb869bf146103e2578063e37bbc5e14610424578063e608eb1f14610461578063f9e5e46e1461048c57610114565b80638588b2c5146102d05780638da5cb5b1461030d578063ab9e2b5d14610338578063afa6184914610361578063ba42f4261461038c57610114565b80634e8933de116100e75780634e8933de146101da578063535a30e41461020557806354d84c031461024757806358e55d2d1461027257806359d551941461028e57610114565b806306d78066146101195780632c0209f5146101445780633ccfd60b146101815780633fc7a76c14610198575b600080fd5b34801561012557600080fd5b5061012e6104b5565b60405161013b919061234e565b60405180910390f35b34801561015057600080fd5b5061016b60048036036101669190810190611f1e565b6104bb565b604051610178919061217e565b60405180910390f35b34801561018d57600080fd5b50610196610571565b005b3480156101a457600080fd5b506101bf60048036036101ba9190810190611f1e565b61064a565b6040516101d1969594939291906121c2565b60405180910390f35b3480156101e657600080fd5b506101ef610909565b6040516101fc919061234e565b60405180910390f35b34801561021157600080fd5b5061022c60048036036102279190810190611f1e565b610913565b60405161023e96959493929190612238565b60405180910390f35b34801561025357600080fd5b5061025c610b37565b604051610269919061234e565b60405180910390f35b61028c60048036036102879190810190611e5f565b610b3d565b005b34801561029a57600080fd5b506102b560048036036102b09190810190611f1e565b610ced565b6040516102c7969594939291906121c2565b60405180910390f35b3480156102dc57600080fd5b506102f760048036036102f29190810190611f1e565b610fac565b604051610304919061234e565b60405180910390f35b34801561031957600080fd5b50610322611405565b60405161032f9190612163565b60405180910390f35b34801561034457600080fd5b5061035f600480360361035a9190810190611e1e565b61142b565b005b34801561036d57600080fd5b50610376611484565b604051610383919061234e565b60405180910390f35b34801561039857600080fd5b506103a161148e565b6040516103ae919061234e565b60405180910390f35b3480156103c357600080fd5b506103cc611497565b6040516103d9919061234e565b60405180910390f35b3480156103ee57600080fd5b5061040960048036036104049190810190611f1e565b61149d565b60405161041b96959493929190612238565b60405180910390f35b34801561043057600080fd5b5061044b60048036036104469190810190611f1e565b6116c1565b60405161045891906121a0565b60405180910390f35b34801561046d57600080fd5b50610476611779565b604051610483919061234e565b60405180910390f35b34801561049857600080fd5b506104b360048036036104ae9190810190611d05565b61177f565b005b60005481565b6003602052806000526040600020600091509050806000018054600181600116156101000203166002900480601f0160208091040260200160405190810160405280929190818152602001828054600181600116156101000203166002900480156105675780601f1061053c57610100808354040283529160200191610567565b820191906000526020600020905b81548152906001019060200180831161054a57829003601f168201915b5050505050905081565b600160009054906101000a900473ffffffffffffffffffffffffffffffffffffffff1673ffffffffffffffffffffffffffffffffffffffff163373ffffffffffffffffffffffffffffffffffffffff1614610601576040517f08c379a00000000000000000000000000000000000000000000000000000000081526004016105f8906122ae565b60405180910390fd5b3373ffffffffffffffffffffffffffffffffffffffff166108fc479081150290604051600060405180830381858888f19350505050158015610647573d6000803e3d6000fd5b50565b6060600080606080600061065c611991565b600460008981526020019081526020016000206040518060c0016040529081600082018054600181600116156101000203166002900480601f0160208091040260200160405190810160405280929190818152602001828054600181600116156101000203166002900480156107135780601f106106e857610100808354040283529160200191610713565b820191906000526020600020905b8154815290600101906020018083116106f657829003601f168201915b505050505081526020016001820154815260200160028201548152602001600382018054600181600116156101000203166002900480601f0160208091040260200160405190810160405280929190818152602001828054600181600116156101000203166002900480156107c95780601f1061079e576101008083540402835291602001916107c9565b820191906000526020600020905b8154815290600101906020018083116107ac57829003601f168201915b50505050508152602001600482018054600181600116156101000203166002900480601f01602080910402602001604051908101604052809291908181526020018280546001816001161561010002031660029004801561086b5780601f106108405761010080835404028352916020019161086b565b820191906000526020600020905b81548152906001019060200180831161084e57829003601f168201915b505050505081526020016005820160009054906101000a900473ffffffffffffffffffffffffffffffffffffffff1673ffffffffffffffffffffffffffffffffffffffff1673ffffffffffffffffffffffffffffffffffffffff16815250509050806000015181602001518260400151836060015184608001518560a001518595508292508191509650965096509650965096505091939550919395565b6000600754905090565b6004602052806000526040600020600091509050806000018054600181600116156101000203166002900480601f0160208091040260200160405190810160405280929190818152602001828054600181600116156101000203166002900480156109bf5780601f10610994576101008083540402835291602001916109bf565b820191906000526020600020905b8154815290600101906020018083116109a257829003601f168201915b505050505090806001015490806002015490806003018054600181600116156101000203166002900480601f016020809104026020016040519081016040528092919081815260200182805460018160011615610100020316600290048015610a695780601f10610a3e57610100808354040283529160200191610a69565b820191906000526020600020905b815481529060010190602001808311610a4c57829003601f168201915b505050505090806004018054600181600116156101000203166002900480601f016020809104026020016040519081016040528092919081815260200182805460018160011615610100020316600290048015610b075780601f10610adc57610100808354040283529160200191610b07565b820191906000526020600020905b815481529060010190602001808311610aea57829003601f168201915b5050505050908060050160009054906101000a900473ffffffffffffffffffffffffffffffffffffffff16905086565b60055481565b600054341015610b82576040517f08c379a0000000000000000000000000000000000000000000000000000000008152600401610b79906122ee565b60405180910390fd5b6006548310610bc6576040517f08c379a0000000000000000000000000000000000000000000000000000000008152600401610bbd906122ce565b60405180910390fd5b6040518060c00160405280868152602001858152602001848152602001838152602001828152602001600073ffffffffffffffffffffffffffffffffffffffff168152506002600060075481526020019081526020016000206000820151816000019080519060200190610c3b9291906119dd565b5060208201518160010155604082015181600201556060820151816003019080519060200190610c6c9291906119dd565b506080820151816004019080519060200190610c899291906119dd565b5060a08201518160050160006101000a81548173ffffffffffffffffffffffffffffffffffffffff021916908373ffffffffffffffffffffffffffffffffffffffff1602179055509050506007600081548092919060010191905055505050505050565b60606000806060806000610cff611991565b600260008981526020019081526020016000206040518060c0016040529081600082018054600181600116156101000203166002900480601f016020809104026020016040519081016040528092919081815260200182805460018160011615610100020316600290048015610db65780601f10610d8b57610100808354040283529160200191610db6565b820191906000526020600020905b815481529060010190602001808311610d9957829003601f168201915b505050505081526020016001820154815260200160028201548152602001600382018054600181600116156101000203166002900480601f016020809104026020016040519081016040528092919081815260200182805460018160011615610100020316600290048015610e6c5780601f10610e4157610100808354040283529160200191610e6c565b820191906000526020600020905b815481529060010190602001808311610e4f57829003601f168201915b50505050508152602001600482018054600181600116156101000203166002900480601f016020809104026020016040519081016040528092919081815260200182805460018160011615610100020316600290048015610f0e5780601f10610ee357610100808354040283529160200191610f0e565b820191906000526020600020905b815481529060010190602001808311610ef157829003601f168201915b505050505081526020016005820160009054906101000a900473ffffffffffffffffffffffffffffffffffffffff1673ffffffffffffffffffffffffffffffffffffffff1673ffffffffffffffffffffffffffffffffffffffff16815250509050806000015181602001518260400151836060015184608001518560a001518595508292508191509650965096509650965096505091939550919395565b6000808210158015610fbf575060075482105b610ffe576040517f08c379a0000000000000000000000000000000000000000000000000000000008152600401610ff59061230e565b60405180910390fd5b600073ffffffffffffffffffffffffffffffffffffffff166002600084815260200190815260200160002060050160009054906101000a900473ffffffffffffffffffffffffffffffffffffffff1673ffffffffffffffffffffffffffffffffffffffff16146110a3576040517f08c379a000000000000000000000000000000000000000000000000000000000815260040161109a9061232e565b60405180910390fd5b336002600084815260200190815260200160002060050160006101000a81548173ffffffffffffffffffffffffffffffffffffffff021916908373ffffffffffffffffffffffffffffffffffffffff1602179055506002600083815260200190815260200160002060046000600554815260200190815260200160002060008201816000019080546001816001161561010002031660029004611147929190611a5d565b50600182015481600101556002820154816002015560038201816003019080546001816001161561010002031660029004611183929190611a5d565b50600482018160040190805460018160011615610100020316600290046111ab929190611a5d565b506005820160009054906101000a900473ffffffffffffffffffffffffffffffffffffffff168160050160006101000a81548173ffffffffffffffffffffffffffffffffffffffff021916908373ffffffffffffffffffffffffffffffffffffffff16021790555090505060056000815480929190600101919050555060008290505b6001600754038110156113675760026000600183018152602001908152602001600020600260008381526020019081526020016000206000820181600001908054600181600116156101000203166002900461128b929190611a5d565b506001820154816001015560028201548160020155600382018160030190805460018160011615610100020316600290046112c7929190611a5d565b50600482018160040190805460018160011615610100020316600290046112ef929190611a5d565b506005820160009054906101000a900473ffffffffffffffffffffffffffffffffffffffff168160050160006101000a81548173ffffffffffffffffffffffffffffffffffffffff021916908373ffffffffffffffffffffffffffffffffffffffff160217905550905050808060010191505061122e565b50600260006001600754038152602001908152602001600020600080820160006113919190611ae4565b600182016000905560028201600090556003820160006113b19190611ae4565b6004820160006113c19190611ae4565b6005820160006101000a81549073ffffffffffffffffffffffffffffffffffffffff0219169055505060076000815480929190600190039190505550819050919050565b600160009054906101000a900473ffffffffffffffffffffffffffffffffffffffff1681565b604051806020016040528082815250600360006006548152602001908152602001600020600082015181600001908051906020019061146b9291906119dd565b5090505060066000815480929190600101919050555050565b6000600554905090565b60008054905090565b60075481565b6002602052806000526040600020600091509050806000018054600181600116156101000203166002900480601f0160208091040260200160405190810160405280929190818152602001828054600181600116156101000203166002900480156115495780601f1061151e57610100808354040283529160200191611549565b820191906000526020600020905b81548152906001019060200180831161152c57829003601f168201915b505050505090806001015490806002015490806003018054600181600116156101000203166002900480601f0160208091040260200160405190810160405280929190818152602001828054600181600116156101000203166002900480156115f35780601f106115c8576101008083540402835291602001916115f3565b820191906000526020600020905b8154815290600101906020018083116115d657829003601f168201915b505050505090806004018054600181600116156101000203166002900480601f0160208091040260200160405190810160405280929190818152602001828054600181600116156101000203166002900480156116915780601f1061166657610100808354040283529160200191611691565b820191906000526020600020905b81548152906001019060200180831161167457829003601f168201915b5050505050908060050160009054906101000a900473ffffffffffffffffffffffffffffffffffffffff16905086565b6060600360008381526020019081526020016000206000018054600181600116156101000203166002900480601f01602080910402602001604051908101604052809291908181526020018280546001816001161561010002031660029004801561176d5780601f106117425761010080835404028352916020019161176d565b820191906000526020600020905b81548152906001019060200180831161175057829003601f168201915b50505050509050919050565b60065481565b60008090505b81518110156117f05760405180602001604052808383815181106117a557fe5b60200260200101518152506003600083815260200190815260200160002060008201518160000190805190602001906117df9291906119dd565b509050508080600101915050611785565b50805160068190555060008090505b8651811015611980576040518060c0016040528088838151811061181f57fe5b6020026020010151815260200187838151811061183857fe5b6020026020010151815260200186838151811061185157fe5b6020026020010151815260200185838151811061186a57fe5b6020026020010151815260200184838151811061188357fe5b60200260200101518152602001600073ffffffffffffffffffffffffffffffffffffffff168152506002600083815260200190815260200160002060008201518160000190805190602001906118da9291906119dd565b506020820151816001015560408201518160020155606082015181600301908051906020019061190b9291906119dd565b5060808201518160040190805190602001906119289291906119dd565b5060a08201518160050160006101000a81548173ffffffffffffffffffffffffffffffffffffffff021916908373ffffffffffffffffffffffffffffffffffffffff16021790555090505080806001019150506117ff565b508551600781905550505050505050565b6040518060c001604052806060815260200160008152602001600081526020016060815260200160608152602001600073ffffffffffffffffffffffffffffffffffffffff1681525090565b828054600181600116156101000203166002900490600052602060002090601f016020900481019282601f10611a1e57805160ff1916838001178555611a4c565b82800160010185558215611a4c579182015b82811115611a4b578251825591602001919060010190611a30565b5b509050611a599190611b2c565b5090565b828054600181600116156101000203166002900490600052602060002090601f016020900481019282601f10611a965780548555611ad3565b82800160010185558215611ad357600052602060002091601f016020900482015b82811115611ad2578254825591600101919060010190611ab7565b5b509050611ae09190611b2c565b5090565b50805460018160011615610100020316600290046000825580601f10611b0a5750611b29565b601f016020900490600052602060002090810190611b289190611b2c565b5b50565b611b4e91905b80821115611b4a576000816000905550600101611b32565b5090565b90565b600082601f830112611b6257600080fd5b8135611b75611b7082612396565b612369565b9150818183526020840193506020810190508360005b83811015611bbb5781358601611ba18882611c48565b845260208401935060208301925050600181019050611b8b565b5050505092915050565b600082601f830112611bd657600080fd5b8135611be9611be4826123be565b612369565b91508181835260208401935060208101905083856020840282011115611c0e57600080fd5b60005b83811015611c3e5781611c248882611cf0565b845260208401935060208301925050600181019050611c11565b5050505092915050565b600082601f830112611c5957600080fd5b8135611c6c611c67826123e6565b612369565b91508082526020830160208301858383011115611c8857600080fd5b611c938382846124a1565b50505092915050565b600082601f830112611cad57600080fd5b8135611cc0611cbb82612412565b612369565b91508082526020830160208301858383011115611cdc57600080fd5b611ce78382846124a1565b50505092915050565b600081359050611cff816124f4565b92915050565b60008060008060008060c08789031215611d1e57600080fd5b600087013567ffffffffffffffff811115611d3857600080fd5b611d4489828a01611b51565b965050602087013567ffffffffffffffff811115611d6157600080fd5b611d6d89828a01611bc5565b955050604087013567ffffffffffffffff811115611d8a57600080fd5b611d9689828a01611bc5565b945050606087013567ffffffffffffffff811115611db357600080fd5b611dbf89828a01611b51565b935050608087013567ffffffffffffffff811115611ddc57600080fd5b611de889828a01611b51565b92505060a087013567ffffffffffffffff811115611e0557600080fd5b611e1189828a01611b51565b9150509295509295509295565b600060208284031215611e3057600080fd5b600082013567ffffffffffffffff811115611e4a57600080fd5b611e5684828501611c9c565b91505092915050565b600080600080600060a08688031215611e7757600080fd5b600086013567ffffffffffffffff811115611e9157600080fd5b611e9d88828901611c9c565b9550506020611eae88828901611cf0565b9450506040611ebf88828901611cf0565b935050606086013567ffffffffffffffff811115611edc57600080fd5b611ee888828901611c9c565b925050608086013567ffffffffffffffff811115611f0557600080fd5b611f1188828901611c9c565b9150509295509295909350565b600060208284031215611f3057600080fd5b6000611f3e84828501611cf0565b91505092915050565b611f5081612465565b82525050565b6000611f6182612449565b611f6b8185612454565b9350611f7b8185602086016124b0565b611f84816124e3565b840191505092915050565b6000611f9a8261243e565b611fa48185612454565b9350611fb48185602086016124b0565b611fbd816124e3565b840191505092915050565b6000611fd5602183612454565b91507f4f6e6c7920746865206f776e65722063616e2077697468647261772066756e6460008301527f73000000000000000000000000000000000000000000000000000000000000006020830152604082019050919050565b600061203b601083612454565b91507f496e76616c6964206272656564204944000000000000000000000000000000006000830152602082019050919050565b600061207b602c83612454565b91507f496e73756666696369656e742045746865722073656e7420666f72206164646960008301527f6e672061206e65772070657400000000000000000000000000000000000000006020830152604082019050919050565b60006120e1600d83612454565b91507f496e76616c6964207065744964000000000000000000000000000000000000006000830152602082019050919050565b6000612121601383612454565b91507f50657420616c72656164792061646f70746564000000000000000000000000006000830152602082019050919050565b61215d81612497565b82525050565b60006020820190506121786000830184611f47565b92915050565b600060208201905081810360008301526121988184611f8f565b905092915050565b600060208201905081810360008301526121ba8184611f56565b905092915050565b600060c08201905081810360008301526121dc8189611f56565b90506121eb6020830188612154565b6121f86040830187612154565b818103606083015261220a8186611f56565b9050818103608083015261221e8185611f56565b905061222d60a0830184611f47565b979650505050505050565b600060c08201905081810360008301526122528189611f8f565b90506122616020830188612154565b61226e6040830187612154565b81810360608301526122808186611f8f565b905081810360808301526122948185611f8f565b90506122a360a0830184611f47565b979650505050505050565b600060208201905081810360008301526122c781611fc8565b9050919050565b600060208201905081810360008301526122e78161202e565b9050919050565b600060208201905081810360008301526123078161206e565b9050919050565b60006020820190508181036000830152612327816120d4565b9050919050565b6000602082019050818103600083015261234781612114565b9050919050565b60006020820190506123636000830184612154565b92915050565b6000604051905081810181811067ffffffffffffffff8211171561238c57600080fd5b8060405250919050565b600067ffffffffffffffff8211156123ad57600080fd5b602082029050602081019050919050565b600067ffffffffffffffff8211156123d557600080fd5b602082029050602081019050919050565b600067ffffffffffffffff8211156123fd57600080fd5b601f19601f8301169050602081019050919050565b600067ffffffffffffffff82111561242957600080fd5b601f19601f8301169050602081019050919050565b600081519050919050565b600081519050919050565b600082825260208201905092915050565b600061247082612477565b9050919050565b600073ffffffffffffffffffffffffffffffffffffffff82169050919050565b6000819050919050565b82818337600083830152505050565b60005b838110156124ce5780820151818401526020810190506124b3565b838111156124dd576000848401525b50505050565b6000601f19601f8301169050919050565b6124fd81612497565b811461250857600080fd5b5056fea365627a7a72315820d485afb3ce14ebdae8222caf62e6386cef8d541095ec7d92ce8d3f8f86e4039d6c6578706572696d656e74616cf564736f6c63430005100040",
  "source": "pragma solidity ^0.5.0;\npragma experimental ABIEncoderV2;\n\ncontract Adoption {\n    struct Pet {\n        string name;\n        uint age;\n        uint breedId;\n        string location;\n        string image; // URL or IPFS hash for the pet's image\n        address adopter;\n    }\n\n    struct Breed {\n        string name;\n    }\n\n    uint public addPetFee = 0.1 ether; // Fee for adding a new pet\n    address public owner;\n\n    constructor() public {\n        owner = 0x756574ae214517069F23287d81b1D30A7248F2F5; // has a fixed address\n    }\n\n    mapping(uint => Pet) public pets; // Mapping of petId to Pet details\n    mapping(uint => Breed) public breeds; // Mapping of breedId to Breed details\n    mapping(uint => Pet) public adoptedPets; // Store adopted pets\n    uint public adoptedCount; // Keep track of the number of adopted pets\n    uint public breedCount; // Number of breeds\n    uint public petCount;   // Number of pets\n\n    // Adopting a pet\n    function adopt(uint petId) public returns (uint) {\n        require(petId >= 0 && petId < petCount, \"Invalid petId\");\n        require(pets[petId].adopter == address(0), \"Pet already adopted\");\n\n        pets[petId].adopter = msg.sender;\n\n        // Move pet to adoptedPets mapping\n        adoptedPets[adoptedCount] = pets[petId];\n        adoptedCount++;\n\n        // Shift the remaining IDs to fill the gap\n        for (uint j = petId; j < petCount - 1; j++) {\n            pets[j] = pets[j + 1];\n        }\n        delete pets[petCount - 1];\n        petCount--;\n\n        return petId;\n    }\n\n    function getAdoptedPet(uint adoptedPetId) public view returns (\n        string memory name,\n        uint age,\n        uint breedId,\n        string memory location,\n        string memory image,\n        address adopter\n    ) {\n        Pet memory pet = adoptedPets[adoptedPetId];\n        return (pet.name, pet.age, pet.breedId, pet.location, pet.image, pet.adopter);\n    }\n\n\n\n    function addNewPet(\n        string memory name,\n        uint age,\n        uint breedId,\n        string memory location,\n        string memory image\n    ) public payable {\n        require(msg.value >= addPetFee, \"Insufficient Ether sent for adding a new pet\");\n        require(breedId < breedCount, \"Invalid breed ID\");\n\n        // Add new pet to the pets mapping\n        pets[petCount] = Pet(name, age, breedId, location, image, address(0));\n        petCount++;\n    }\n\n    function withdraw() public {\n        require(msg.sender == owner, \"Only the owner can withdraw funds\");\n        msg.sender.transfer(address(this).balance);\n    }\n\n    function addBreed(string memory name) public {\n        breeds[breedCount] = Breed(name);\n        breedCount++;\n    }\n\n    // Get the total number of pets\n    function getPetCount() public view returns (uint) {\n        return petCount;\n    }\n\n    function getAdoptedCount() public view returns (uint) {\n        return adoptedCount;\n    }\n\n    function getAddPetFee() public view returns (uint) {\n        return addPetFee;\n    }\n\n    // Retrieve all pet details\n    function getPet(uint petId) public view returns (\n        string memory name,\n        uint age,\n        uint breedId,\n        string memory location,\n        string memory image,\n        address adopter\n    ) {\n        Pet memory pet = pets[petId];\n        return (pet.name, pet.age, pet.breedId, pet.location, pet.image, pet.adopter);\n    }\n\n    // Retrieve breed name\n    function getBreed(uint breedId) public view returns (string memory) {\n        return breeds[breedId].name;\n    }\n\n    // Admin function to initialize pets and breeds\n    function initializeData(\n        string[] memory names,\n        uint[] memory ages,\n        uint[] memory breedIds,\n        string[] memory locations,\n        string[] memory images,\n        string[] memory breedNames\n    ) public {\n        // Initialize breeds\n        for (uint i = 0; i < breedNames.length; i++) {\n            breeds[i] = Breed(breedNames[i]);\n        }\n        breedCount = breedNames.length;\n\n        // Initialize pets\n        for (uint i = 0; i < names.length; i++) {\n            pets[i] = Pet(names[i], ages[i], breedIds[i], locations[i], images[i], address(0));\n        }\n        petCount = names.length;\n    }\n}\n",
  "sourcePath": "D:/Projects/aps1050/A7/pet-shop-box-master/contracts/Adoption.sol",
  "compiler": {
    "name": "solc",
    "version": "0.5.16+commit.9c3226ce.Emscripten.clang"
  },
  "schemaVersion": "3.0.22",
  "updatedAt": "2024-12-12T07:14:47.251Z",
  "networkType": "ethereum",
  "devdoc": {
    "methods": {}
  },
  "userdoc": {
    "methods": {}
  }
}