{
  "contractName": "Adoption",
  "abi": [
    {
      "inputs": [],
      "payable": false,
      "stateMutability": "nonpayable",
      "type": "constructor"
    },
    {
      "constant": true,
      "inputs": [],
      "name": "addPetFee",
      "outputs": [
        {
          "internalType": "uint256",
          "name": "",
          "type": "uint256"
        }
      ],
      "payable": false,
      "stateMutability": "view",
      "type": "function"
    },
    {
      "constant": true,
      "inputs": [],
      "name": "adoptedCount",
      "outputs": [
        {
          "internalType": "uint256",
          "name": "",
          "type": "uint256"
        }
      ],
      "payable": false,
      "stateMutability": "view",
      "type": "function"
    },
    {
      "constant": true,
      "inputs": [
        {
          "internalType": "uint256",
          "name": "",
          "type": "uint256"
        }
      ],
      "name": "adoptedPets",
      "outputs": [
        {
          "internalType": "string",
          "name": "name",
          "type": "string"
        },
        {
          "internalType": "uint256",
          "name": "age",
          "type": "uint256"
        },
        {
          "internalType": "uint256",
          "name": "breedId",
          "type": "uint256"
        },
        {
          "internalType": "string",
          "name": "location",
          "type": "string"
        },
        {
          "internalType": "string",
          "name": "image",
          "type": "string"
        },
        {
          "internalType": "address",
          "name": "adopter",
          "type": "address"
        },
        {
          "internalType": "uint256",
          "name": "voteCount",
          "type": "uint256"
        }
      ],
      "payable": false,
      "stateMutability": "view",
      "type": "function"
    },
    {
      "constant": true,
      "inputs": [],
      "name": "breedCount",
      "outputs": [
        {
          "internalType": "uint256",
          "name": "",
          "type": "uint256"
        }
      ],
      "payable": false,
      "stateMutability": "view",
      "type": "function"
    },
    {
      "constant": true,
      "inputs": [
        {
          "internalType": "uint256",
          "name": "",
          "type": "uint256"
        }
      ],
      "name": "breeds",
      "outputs": [
        {
          "internalType": "string",
          "name": "name",
          "type": "string"
        }
      ],
      "payable": false,
      "stateMutability": "view",
      "type": "function"
    },
    {
      "constant": true,
      "inputs": [],
      "name": "owner",
      "outputs": [
        {
          "internalType": "address",
          "name": "",
          "type": "address"
        }
      ],
      "payable": false,
      "stateMutability": "view",
      "type": "function"
    },
    {
      "constant": true,
      "inputs": [],
      "name": "petCount",
      "outputs": [
        {
          "internalType": "uint256",
          "name": "",
          "type": "uint256"
        }
      ],
      "payable": false,
      "stateMutability": "view",
      "type": "function"
    },
    {
      "constant": true,
      "inputs": [
        {
          "internalType": "uint256",
          "name": "",
          "type": "uint256"
        }
      ],
      "name": "pets",
      "outputs": [
        {
          "internalType": "string",
          "name": "name",
          "type": "string"
        },
        {
          "internalType": "uint256",
          "name": "age",
          "type": "uint256"
        },
        {
          "internalType": "uint256",
          "name": "breedId",
          "type": "uint256"
        },
        {
          "internalType": "string",
          "name": "location",
          "type": "string"
        },
        {
          "internalType": "string",
          "name": "image",
          "type": "string"
        },
        {
          "internalType": "address",
          "name": "adopter",
          "type": "address"
        },
        {
          "internalType": "uint256",
          "name": "voteCount",
          "type": "uint256"
        }
      ],
      "payable": false,
      "stateMutability": "view",
      "type": "function"
    },
    {
      "constant": false,
      "inputs": [
        {
          "internalType": "uint256",
          "name": "petId",
          "type": "uint256"
        }
      ],
      "name": "adopt",
      "outputs": [
        {
          "internalType": "uint256",
          "name": "",
          "type": "uint256"
        }
      ],
      "payable": false,
      "stateMutability": "nonpayable",
      "type": "function"
    },
    {
      "constant": true,
      "inputs": [
        {
          "internalType": "uint256",
          "name": "adoptedPetId",
          "type": "uint256"
        }
      ],
      "name": "getAdoptedPet",
      "outputs": [
        {
          "internalType": "string",
          "name": "name",
          "type": "string"
        },
        {
          "internalType": "uint256",
          "name": "age",
          "type": "uint256"
        },
        {
          "internalType": "uint256",
          "name": "breedId",
          "type": "uint256"
        },
        {
          "internalType": "string",
          "name": "location",
          "type": "string"
        },
        {
          "internalType": "string",
          "name": "image",
          "type": "string"
        },
        {
          "internalType": "address",
          "name": "adopter",
          "type": "address"
        }
      ],
      "payable": false,
      "stateMutability": "view",
      "type": "function"
    },
    {
      "constant": false,
      "inputs": [
        {
          "internalType": "string",
          "name": "name",
          "type": "string"
        },
        {
          "internalType": "uint256",
          "name": "age",
          "type": "uint256"
        },
        {
          "internalType": "uint256",
          "name": "breedId",
          "type": "uint256"
        },
        {
          "internalType": "string",
          "name": "location",
          "type": "string"
        },
        {
          "internalType": "string",
          "name": "image",
          "type": "string"
        }
      ],
      "name": "addNewPet",
      "outputs": [],
      "payable": true,
      "stateMutability": "payable",
      "type": "function"
    },
    {
      "constant": false,
      "inputs": [],
      "name": "withdraw",
      "outputs": [],
      "payable": false,
      "stateMutability": "nonpayable",
      "type": "function"
    },
    {
      "constant": false,
      "inputs": [
        {
          "internalType": "string",
          "name": "name",
          "type": "string"
        }
      ],
      "name": "addBreed",
      "outputs": [],
      "payable": false,
      "stateMutability": "nonpayable",
      "type": "function"
    },
    {
      "constant": true,
      "inputs": [],
      "name": "getPetCount",
      "outputs": [
        {
          "internalType": "uint256",
          "name": "",
          "type": "uint256"
        }
      ],
      "payable": false,
      "stateMutability": "view",
      "type": "function"
    },
    {
      "constant": true,
      "inputs": [],
      "name": "getAdoptedCount",
      "outputs": [
        {
          "internalType": "uint256",
          "name": "",
          "type": "uint256"
        }
      ],
      "payable": false,
      "stateMutability": "view",
      "type": "function"
    },
    {
      "constant": true,
      "inputs": [],
      "name": "getAddPetFee",
      "outputs": [
        {
          "internalType": "uint256",
          "name": "",
          "type": "uint256"
        }
      ],
      "payable": false,
      "stateMutability": "view",
      "type": "function"
    },
    {
      "constant": true,
      "inputs": [
        {
          "internalType": "uint256",
          "name": "petId",
          "type": "uint256"
        }
      ],
      "name": "getPet",
      "outputs": [
        {
          "internalType": "string",
          "name": "name",
          "type": "string"
        },
        {
          "internalType": "uint256",
          "name": "age",
          "type": "uint256"
        },
        {
          "internalType": "uint256",
          "name": "breedId",
          "type": "uint256"
        },
        {
          "internalType": "string",
          "name": "location",
          "type": "string"
        },
        {
          "internalType": "string",
          "name": "image",
          "type": "string"
        },
        {
          "internalType": "address",
          "name": "adopter",
          "type": "address"
        }
      ],
      "payable": false,
      "stateMutability": "view",
      "type": "function"
    },
    {
      "constant": true,
      "inputs": [
        {
          "internalType": "uint256",
          "name": "breedId",
          "type": "uint256"
        }
      ],
      "name": "getBreed",
      "outputs": [
        {
          "internalType": "string",
          "name": "",
          "type": "string"
        }
      ],
      "payable": false,
      "stateMutability": "view",
      "type": "function"
    },
    {
      "constant": false,
      "inputs": [
        {
          "internalType": "uint256",
          "name": "petId",
          "type": "uint256"
        }
      ],
      "name": "voteForPet",
      "outputs": [],
      "payable": false,
      "stateMutability": "nonpayable",
      "type": "function"
    },
    {
      "constant": true,
      "inputs": [
        {
          "internalType": "uint256",
          "name": "petId",
          "type": "uint256"
        }
      ],
      "name": "getVoteCount",
      "outputs": [
        {
          "internalType": "uint256",
          "name": "",
          "type": "uint256"
        }
      ],
      "payable": false,
      "stateMutability": "view",
      "type": "function"
    },
    {
      "constant": false,
      "inputs": [
        {
          "internalType": "string[]",
          "name": "names",
          "type": "string[]"
        },
        {
          "internalType": "uint256[]",
          "name": "ages",
          "type": "uint256[]"
        },
        {
          "internalType": "uint256[]",
          "name": "breedIds",
          "type": "uint256[]"
        },
        {
          "internalType": "string[]",
          "name": "locations",
          "type": "string[]"
        },
        {
          "internalType": "string[]",
          "name": "images",
          "type": "string[]"
        },
        {
          "internalType": "string[]",
          "name": "breedNames",
          "type": "string[]"
        }
      ],
      "name": "initializeData",
      "outputs": [],
      "payable": false,
      "stateMutability": "nonpayable",
      "type": "function"
    }
  ],
  "bytecode": "0x608060405267016345785d8a000060005534801561001c57600080fd5b5073756574ae214517069f23287d81b1d30a7248f2f5600160006101000a81548173ffffffffffffffffffffffffffffffffffffffff021916908373ffffffffffffffffffffffffffffffffffffffff16021790555061288d806100816000396000f3fe60806040526004361061012a5760003560e01c80638da5cb5b116100ab578063cd619f581161006f578063cd619f581461040b578063cfb869bf14610436578063dd22d0c514610479578063e37bbc5e146104a2578063e608eb1f146104df578063f9e5e46e1461050a5761012a565b80638da5cb5b14610324578063ab9e2b5d1461034f578063afa6184914610378578063b2c2f2e8146103a3578063ba42f426146103e05761012a565b8063535a30e4116100f2578063535a30e41461021b57806354d84c031461025e57806358e55d2d1461028957806359d55194146102a55780638588b2c5146102e75761012a565b806306d780661461012f5780632c0209f51461015a5780633ccfd60b146101975780633fc7a76c146101ae5780634e8933de146101f0575b600080fd5b34801561013b57600080fd5b50610144610533565b604051610151919061268d565b60405180910390f35b34801561016657600080fd5b50610181600480360361017c919081019061218f565b610539565b60405161018e919061246f565b60405180910390f35b3480156101a357600080fd5b506101ac6105ef565b005b3480156101ba57600080fd5b506101d560048036036101d0919081019061218f565b6106c8565b6040516101e7969594939291906124b3565b60405180910390f35b3480156101fc57600080fd5b50610205610991565b604051610212919061268d565b60405180910390f35b34801561022757600080fd5b50610242600480360361023d919081019061218f565b61099b565b6040516102559796959493929190612529565b60405180910390f35b34801561026a57600080fd5b50610273610bc5565b604051610280919061268d565b60405180910390f35b6102a3600480360361029e91908101906120d0565b610bcb565b005b3480156102b157600080fd5b506102cc60048036036102c7919081019061218f565b610d8c565b6040516102de969594939291906124b3565b60405180910390f35b3480156102f357600080fd5b5061030e6004803603610309919081019061218f565b611055565b60405161031b919061268d565b60405180910390f35b34801561033057600080fd5b506103396114ca565b6040516103469190612454565b60405180910390f35b34801561035b57600080fd5b506103766004803603610371919081019061208f565b6114f0565b005b34801561038457600080fd5b5061038d611549565b60405161039a919061268d565b60405180910390f35b3480156103af57600080fd5b506103ca60048036036103c5919081019061218f565b611553565b6040516103d7919061268d565b60405180910390f35b3480156103ec57600080fd5b506103f56115c3565b604051610402919061268d565b60405180910390f35b34801561041757600080fd5b506104206115cc565b60405161042d919061268d565b60405180910390f35b34801561044257600080fd5b5061045d6004803603610458919081019061218f565b6115d2565b6040516104709796959493929190612529565b60405180910390f35b34801561048557600080fd5b506104a0600480360361049b919081019061218f565b6117fc565b005b3480156104ae57600080fd5b506104c960048036036104c4919081019061218f565b61191a565b6040516104d69190612491565b60405180910390f35b3480156104eb57600080fd5b506104f46119d2565b604051610501919061268d565b60405180910390f35b34801561051657600080fd5b50610531600480360361052c9190810190611f76565b6119d8565b005b60005481565b6003602052806000526040600020600091509050806000018054600181600116156101000203166002900480601f0160208091040260200160405190810160405280929190818152602001828054600181600116156101000203166002900480156105e55780601f106105ba576101008083540402835291602001916105e5565b820191906000526020600020905b8154815290600101906020018083116105c857829003601f168201915b5050505050905081565b600160009054906101000a900473ffffffffffffffffffffffffffffffffffffffff1673ffffffffffffffffffffffffffffffffffffffff163373ffffffffffffffffffffffffffffffffffffffff161461067f576040517f08c379a0000000000000000000000000000000000000000000000000000000008152600401610676906125ad565b60405180910390fd5b3373ffffffffffffffffffffffffffffffffffffffff166108fc479081150290604051600060405180830381858888f193505050501580156106c5573d6000803e3d6000fd5b50565b606060008060608060006106da611bfb565b600460008981526020019081526020016000206040518060e0016040529081600082018054600181600116156101000203166002900480601f0160208091040260200160405190810160405280929190818152602001828054600181600116156101000203166002900480156107915780601f1061076657610100808354040283529160200191610791565b820191906000526020600020905b81548152906001019060200180831161077457829003601f168201915b505050505081526020016001820154815260200160028201548152602001600382018054600181600116156101000203166002900480601f0160208091040260200160405190810160405280929190818152602001828054600181600116156101000203166002900480156108475780601f1061081c57610100808354040283529160200191610847565b820191906000526020600020905b81548152906001019060200180831161082a57829003601f168201915b50505050508152602001600482018054600181600116156101000203166002900480601f0160208091040260200160405190810160405280929190818152602001828054600181600116156101000203166002900480156108e95780601f106108be576101008083540402835291602001916108e9565b820191906000526020600020905b8154815290600101906020018083116108cc57829003601f168201915b505050505081526020016005820160009054906101000a900473ffffffffffffffffffffffffffffffffffffffff1673ffffffffffffffffffffffffffffffffffffffff1673ffffffffffffffffffffffffffffffffffffffff1681526020016006820154815250509050806000015181602001518260400151836060015184608001518560a001518595508292508191509650965096509650965096505091939550919395565b6000600754905090565b6004602052806000526040600020600091509050806000018054600181600116156101000203166002900480601f016020809104026020016040519081016040528092919081815260200182805460018160011615610100020316600290048015610a475780601f10610a1c57610100808354040283529160200191610a47565b820191906000526020600020905b815481529060010190602001808311610a2a57829003601f168201915b505050505090806001015490806002015490806003018054600181600116156101000203166002900480601f016020809104026020016040519081016040528092919081815260200182805460018160011615610100020316600290048015610af15780601f10610ac657610100808354040283529160200191610af1565b820191906000526020600020905b815481529060010190602001808311610ad457829003601f168201915b505050505090806004018054600181600116156101000203166002900480601f016020809104026020016040519081016040528092919081815260200182805460018160011615610100020316600290048015610b8f5780601f10610b6457610100808354040283529160200191610b8f565b820191906000526020600020905b815481529060010190602001808311610b7257829003601f168201915b5050505050908060050160009054906101000a900473ffffffffffffffffffffffffffffffffffffffff16908060060154905087565b60055481565b600054341015610c10576040517f08c379a0000000000000000000000000000000000000000000000000000000008152600401610c07906125ed565b60405180910390fd5b6006548310610c54576040517f08c379a0000000000000000000000000000000000000000000000000000000008152600401610c4b906125cd565b60405180910390fd5b6040518060e00160405280868152602001858152602001848152602001838152602001828152602001600073ffffffffffffffffffffffffffffffffffffffff16815260200160008152506002600060075481526020019081526020016000206000820151816000019080519060200190610cd0929190611c4e565b5060208201518160010155604082015181600201556060820151816003019080519060200190610d01929190611c4e565b506080820151816004019080519060200190610d1e929190611c4e565b5060a08201518160050160006101000a81548173ffffffffffffffffffffffffffffffffffffffff021916908373ffffffffffffffffffffffffffffffffffffffff16021790555060c082015181600601559050506007600081548092919060010191905055505050505050565b60606000806060806000610d9e611bfb565b600260008981526020019081526020016000206040518060e0016040529081600082018054600181600116156101000203166002900480601f016020809104026020016040519081016040528092919081815260200182805460018160011615610100020316600290048015610e555780601f10610e2a57610100808354040283529160200191610e55565b820191906000526020600020905b815481529060010190602001808311610e3857829003601f168201915b505050505081526020016001820154815260200160028201548152602001600382018054600181600116156101000203166002900480601f016020809104026020016040519081016040528092919081815260200182805460018160011615610100020316600290048015610f0b5780601f10610ee057610100808354040283529160200191610f0b565b820191906000526020600020905b815481529060010190602001808311610eee57829003601f168201915b50505050508152602001600482018054600181600116156101000203166002900480601f016020809104026020016040519081016040528092919081815260200182805460018160011615610100020316600290048015610fad5780601f10610f8257610100808354040283529160200191610fad565b820191906000526020600020905b815481529060010190602001808311610f9057829003601f168201915b505050505081526020016005820160009054906101000a900473ffffffffffffffffffffffffffffffffffffffff1673ffffffffffffffffffffffffffffffffffffffff1673ffffffffffffffffffffffffffffffffffffffff1681526020016006820154815250509050806000015181602001518260400151836060015184608001518560a001518595508292508191509650965096509650965096505091939550919395565b6000808210158015611068575060075482105b6110a7576040517f08c379a000000000000000000000000000000000000000000000000000000000815260040161109e9061262d565b60405180910390fd5b600073ffffffffffffffffffffffffffffffffffffffff166002600084815260200190815260200160002060050160009054906101000a900473ffffffffffffffffffffffffffffffffffffffff1673ffffffffffffffffffffffffffffffffffffffff161461114c576040517f08c379a00000000000000000000000000000000000000000000000000000000081526004016111439061266d565b60405180910390fd5b336002600084815260200190815260200160002060050160006101000a81548173ffffffffffffffffffffffffffffffffffffffff021916908373ffffffffffffffffffffffffffffffffffffffff16021790555060026000838152602001908152602001600020600460006005548152602001908152602001600020600082018160000190805460018160011615610100020316600290046111f0929190611cce565b5060018201548160010155600282015481600201556003820181600301908054600181600116156101000203166002900461122c929190611cce565b5060048201816004019080546001816001161561010002031660029004611254929190611cce565b506005820160009054906101000a900473ffffffffffffffffffffffffffffffffffffffff168160050160006101000a81548173ffffffffffffffffffffffffffffffffffffffff021916908373ffffffffffffffffffffffffffffffffffffffff1602179055506006820154816006015590505060056000815480929190600101919050555060008290505b6001600754038110156114245760026000600183018152602001908152602001600020600260008381526020019081526020016000206000820181600001908054600181600116156101000203166002900461133e929190611cce565b5060018201548160010155600282015481600201556003820181600301908054600181600116156101000203166002900461137a929190611cce565b50600482018160040190805460018160011615610100020316600290046113a2929190611cce565b506005820160009054906101000a900473ffffffffffffffffffffffffffffffffffffffff168160050160006101000a81548173ffffffffffffffffffffffffffffffffffffffff021916908373ffffffffffffffffffffffffffffffffffffffff1602179055506006820154816006015590505080806001019150506112e1565b506002600060016007540381526020019081526020016000206000808201600061144e9190611d55565b6001820160009055600282016000905560038201600061146e9190611d55565b60048201600061147e9190611d55565b6005820160006101000a81549073ffffffffffffffffffffffffffffffffffffffff02191690556006820160009055505060076000815480929190600190039190505550819050919050565b600160009054906101000a900473ffffffffffffffffffffffffffffffffffffffff1681565b6040518060200160405280828152506003600060065481526020019081526020016000206000820151816000019080519060200190611530929190611c4e565b5090505060066000815480929190600101919050555050565b6000600554905090565b6000808210158015611566575060075482105b6115a5576040517f08c379a000000000000000000000000000000000000000000000000000000000815260040161159c9061260d565b60405180910390fd5b60026000838152602001908152602001600020600601549050919050565b60008054905090565b60075481565b6002602052806000526040600020600091509050806000018054600181600116156101000203166002900480601f01602080910402602001604051908101604052809291908181526020018280546001816001161561010002031660029004801561167e5780601f106116535761010080835404028352916020019161167e565b820191906000526020600020905b81548152906001019060200180831161166157829003601f168201915b505050505090806001015490806002015490806003018054600181600116156101000203166002900480601f0160208091040260200160405190810160405280929190818152602001828054600181600116156101000203166002900480156117285780601f106116fd57610100808354040283529160200191611728565b820191906000526020600020905b81548152906001019060200180831161170b57829003601f168201915b505050505090806004018054600181600116156101000203166002900480601f0160208091040260200160405190810160405280929190818152602001828054600181600116156101000203166002900480156117c65780601f1061179b576101008083540402835291602001916117c6565b820191906000526020600020905b8154815290600101906020018083116117a957829003601f168201915b5050505050908060050160009054906101000a900473ffffffffffffffffffffffffffffffffffffffff16908060060154905087565b6000811015801561180e575060075481105b61184d576040517f08c379a00000000000000000000000000000000000000000000000000000000081526004016118449061260d565b60405180910390fd5b600073ffffffffffffffffffffffffffffffffffffffff166002600083815260200190815260200160002060050160009054906101000a900473ffffffffffffffffffffffffffffffffffffffff1673ffffffffffffffffffffffffffffffffffffffff16146118f2576040517f08c379a00000000000000000000000000000000000000000000000000000000081526004016118e99061264d565b60405180910390fd5b6001600260008381526020019081526020016000206006016000828254019250508190555050565b6060600360008381526020019081526020016000206000018054600181600116156101000203166002900480601f0160208091040260200160405190810160405280929190818152602001828054600181600116156101000203166002900480156119c65780601f1061199b576101008083540402835291602001916119c6565b820191906000526020600020905b8154815290600101906020018083116119a957829003601f168201915b50505050509050919050565b60065481565b60008090505b8151811015611a495760405180602001604052808383815181106119fe57fe5b6020026020010151815250600360008381526020019081526020016000206000820151816000019080519060200190611a38929190611c4e565b5090505080806001019150506119de565b50805160068190555060008090505b8651811015611bea576040518060e00160405280888381518110611a7857fe5b60200260200101518152602001878381518110611a9157fe5b60200260200101518152602001868381518110611aaa57fe5b60200260200101518152602001858381518110611ac357fe5b60200260200101518152602001848381518110611adc57fe5b60200260200101518152602001600073ffffffffffffffffffffffffffffffffffffffff1681526020016000815250600260008381526020019081526020016000206000820151816000019080519060200190611b3a929190611c4e565b5060208201518160010155604082015181600201556060820151816003019080519060200190611b6b929190611c4e565b506080820151816004019080519060200190611b88929190611c4e565b5060a08201518160050160006101000a81548173ffffffffffffffffffffffffffffffffffffffff021916908373ffffffffffffffffffffffffffffffffffffffff16021790555060c082015181600601559050508080600101915050611a58565b508551600781905550505050505050565b6040518060e001604052806060815260200160008152602001600081526020016060815260200160608152602001600073ffffffffffffffffffffffffffffffffffffffff168152602001600081525090565b828054600181600116156101000203166002900490600052602060002090601f016020900481019282601f10611c8f57805160ff1916838001178555611cbd565b82800160010185558215611cbd579182015b82811115611cbc578251825591602001919060010190611ca1565b5b509050611cca9190611d9d565b5090565b828054600181600116156101000203166002900490600052602060002090601f016020900481019282601f10611d075780548555611d44565b82800160010185558215611d4457600052602060002091601f016020900482015b82811115611d43578254825591600101919060010190611d28565b5b509050611d519190611d9d565b5090565b50805460018160011615610100020316600290046000825580601f10611d7b5750611d9a565b601f016020900490600052602060002090810190611d999190611d9d565b5b50565b611dbf91905b80821115611dbb576000816000905550600101611da3565b5090565b90565b600082601f830112611dd357600080fd5b8135611de6611de1826126d5565b6126a8565b9150818183526020840193506020810190508360005b83811015611e2c5781358601611e128882611eb9565b845260208401935060208301925050600181019050611dfc565b5050505092915050565b600082601f830112611e4757600080fd5b8135611e5a611e55826126fd565b6126a8565b91508181835260208401935060208101905083856020840282011115611e7f57600080fd5b60005b83811015611eaf5781611e958882611f61565b845260208401935060208301925050600181019050611e82565b5050505092915050565b600082601f830112611eca57600080fd5b8135611edd611ed882612725565b6126a8565b91508082526020830160208301858383011115611ef957600080fd5b611f048382846127e0565b50505092915050565b600082601f830112611f1e57600080fd5b8135611f31611f2c82612751565b6126a8565b91508082526020830160208301858383011115611f4d57600080fd5b611f588382846127e0565b50505092915050565b600081359050611f7081612833565b92915050565b60008060008060008060c08789031215611f8f57600080fd5b600087013567ffffffffffffffff811115611fa957600080fd5b611fb589828a01611dc2565b965050602087013567ffffffffffffffff811115611fd257600080fd5b611fde89828a01611e36565b955050604087013567ffffffffffffffff811115611ffb57600080fd5b61200789828a01611e36565b945050606087013567ffffffffffffffff81111561202457600080fd5b61203089828a01611dc2565b935050608087013567ffffffffffffffff81111561204d57600080fd5b61205989828a01611dc2565b92505060a087013567ffffffffffffffff81111561207657600080fd5b61208289828a01611dc2565b9150509295509295509295565b6000602082840312156120a157600080fd5b600082013567ffffffffffffffff8111156120bb57600080fd5b6120c784828501611f0d565b91505092915050565b600080600080600060a086880312156120e857600080fd5b600086013567ffffffffffffffff81111561210257600080fd5b61210e88828901611f0d565b955050602061211f88828901611f61565b945050604061213088828901611f61565b935050606086013567ffffffffffffffff81111561214d57600080fd5b61215988828901611f0d565b925050608086013567ffffffffffffffff81111561217657600080fd5b61218288828901611f0d565b9150509295509295909350565b6000602082840312156121a157600080fd5b60006121af84828501611f61565b91505092915050565b6121c1816127a4565b82525050565b60006121d282612788565b6121dc8185612793565b93506121ec8185602086016127ef565b6121f581612822565b840191505092915050565b600061220b8261277d565b6122158185612793565b93506122258185602086016127ef565b61222e81612822565b840191505092915050565b6000612246602183612793565b91507f4f6e6c7920746865206f776e65722063616e2077697468647261772066756e6460008301527f73000000000000000000000000000000000000000000000000000000000000006020830152604082019050919050565b60006122ac601083612793565b91507f496e76616c6964206272656564204944000000000000000000000000000000006000830152602082019050919050565b60006122ec602c83612793565b91507f496e73756666696369656e742045746865722073656e7420666f72206164646960008301527f6e672061206e65772070657400000000000000000000000000000000000000006020830152604082019050919050565b6000612352600e83612793565b91507f496e76616c6964207065742049440000000000000000000000000000000000006000830152602082019050919050565b6000612392600d83612793565b91507f496e76616c6964207065744964000000000000000000000000000000000000006000830152602082019050919050565b60006123d2601c83612793565b91507f43616e6e6f7420766f746520666f722061646f707465642070657473000000006000830152602082019050919050565b6000612412601383612793565b91507f50657420616c72656164792061646f70746564000000000000000000000000006000830152602082019050919050565b61244e816127d6565b82525050565b600060208201905061246960008301846121b8565b92915050565b600060208201905081810360008301526124898184612200565b905092915050565b600060208201905081810360008301526124ab81846121c7565b905092915050565b600060c08201905081810360008301526124cd81896121c7565b90506124dc6020830188612445565b6124e96040830187612445565b81810360608301526124fb81866121c7565b9050818103608083015261250f81856121c7565b905061251e60a08301846121b8565b979650505050505050565b600060e0820190508181036000830152612543818a612200565b90506125526020830189612445565b61255f6040830188612445565b81810360608301526125718187612200565b905081810360808301526125858186612200565b905061259460a08301856121b8565b6125a160c0830184612445565b98975050505050505050565b600060208201905081810360008301526125c681612239565b9050919050565b600060208201905081810360008301526125e68161229f565b9050919050565b60006020820190508181036000830152612606816122df565b9050919050565b6000602082019050818103600083015261262681612345565b9050919050565b6000602082019050818103600083015261264681612385565b9050919050565b60006020820190508181036000830152612666816123c5565b9050919050565b6000602082019050818103600083015261268681612405565b9050919050565b60006020820190506126a26000830184612445565b92915050565b6000604051905081810181811067ffffffffffffffff821117156126cb57600080fd5b8060405250919050565b600067ffffffffffffffff8211156126ec57600080fd5b602082029050602081019050919050565b600067ffffffffffffffff82111561271457600080fd5b602082029050602081019050919050565b600067ffffffffffffffff82111561273c57600080fd5b601f19601f8301169050602081019050919050565b600067ffffffffffffffff82111561276857600080fd5b601f19601f8301169050602081019050919050565b600081519050919050565b600081519050919050565b600082825260208201905092915050565b60006127af826127b6565b9050919050565b600073ffffffffffffffffffffffffffffffffffffffff82169050919050565b6000819050919050565b82818337600083830152505050565b60005b8381101561280d5780820151818401526020810190506127f2565b8381111561281c576000848401525b50505050565b6000601f19601f8301169050919050565b61283c816127d6565b811461284757600080fd5b5056fea365627a7a723158207c8082411cfb5c7ff7538a3941ddd2a797c586d21b19c828a03c29342ffcaf2e6c6578706572696d656e74616cf564736f6c63430005100040",
  "source": "pragma solidity ^0.5.0;\npragma experimental ABIEncoderV2;\n\ncontract Adoption {\n    struct Pet {\n        string name;\n        uint age;\n        uint breedId;\n        string location;\n        string image; // URL or IPFS hash for the pet's image\n        address adopter;\n        uint voteCount; // Add vote count\n    }\n\n    struct Breed {\n        string name;\n    }\n\n    uint public addPetFee = 0.1 ether; // Fee for adding a new pet\n    address public owner;\n\n    constructor() public {\n        owner = 0x756574ae214517069F23287d81b1D30A7248F2F5; // has a fixed address\n    }\n\n    mapping(uint => Pet) public pets; // Mapping of petId to Pet details\n    mapping(uint => Breed) public breeds; // Mapping of breedId to Breed details\n    mapping(uint => Pet) public adoptedPets; // Store adopted pets\n    uint public adoptedCount; // Keep track of the number of adopted pets\n    uint public breedCount; // Number of breeds\n    uint public petCount;   // Number of pets\n\n    // Adopting a pet\n    function adopt(uint petId) public returns (uint) {\n        require(petId >= 0 && petId < petCount, \"Invalid petId\");\n        require(pets[petId].adopter == address(0), \"Pet already adopted\");\n\n        pets[petId].adopter = msg.sender;\n\n        // Move pet to adoptedPets mapping\n        adoptedPets[adoptedCount] = pets[petId];\n        adoptedCount++;\n\n        // Shift the remaining IDs to fill the gap\n        for (uint j = petId; j < petCount - 1; j++) {\n            pets[j] = pets[j + 1];\n        }\n        delete pets[petCount - 1];\n        petCount--;\n\n        return petId;\n    }\n\n    function getAdoptedPet(uint adoptedPetId) public view returns (\n        string memory name,\n        uint age,\n        uint breedId,\n        string memory location,\n        string memory image,\n        address adopter\n    ) {\n        Pet memory pet = adoptedPets[adoptedPetId];\n        return (pet.name, pet.age, pet.breedId, pet.location, pet.image, pet.adopter);\n    }\n\n\n    function addNewPet(\n        string memory name,\n        uint age,\n        uint breedId,\n        string memory location,\n        string memory image\n    ) public payable {\n        require(msg.value >= addPetFee, \"Insufficient Ether sent for adding a new pet\");\n        require(breedId < breedCount, \"Invalid breed ID\");\n\n        // Add new pet to the pets mapping\n        pets[petCount] = Pet(name, age, breedId, location, image, address(0), 0);\n        petCount++;\n    }\n\n    function withdraw() public {\n        require(msg.sender == owner, \"Only the owner can withdraw funds\");\n        msg.sender.transfer(address(this).balance);\n    }\n\n    function addBreed(string memory name) public {\n        breeds[breedCount] = Breed(name);\n        breedCount++;\n    }\n\n    // Get the total number of pets\n    function getPetCount() public view returns (uint) {\n        return petCount;\n    }\n\n    function getAdoptedCount() public view returns (uint) {\n        return adoptedCount;\n    }\n\n    function getAddPetFee() public view returns (uint) {\n        return addPetFee;\n    }\n\n    // Retrieve all pet details\n    function getPet(uint petId) public view returns (\n        string memory name,\n        uint age,\n        uint breedId,\n        string memory location,\n        string memory image,\n        address adopter\n    ) {\n        Pet memory pet = pets[petId];\n        return (pet.name, pet.age, pet.breedId, pet.location, pet.image, pet.adopter);\n    }\n\n    // Retrieve breed name\n    function getBreed(uint breedId) public view returns (string memory) {\n        return breeds[breedId].name;\n    }\n\n    function voteForPet(uint petId) public {\n        require(petId >= 0 && petId < petCount, \"Invalid pet ID\");\n        require(pets[petId].adopter == address(0), \"Cannot vote for adopted pets\");\n\n        pets[petId].voteCount += 1;\n    }\n\n    function getVoteCount(uint petId) public view returns (uint) {\n        require(petId >= 0 && petId < petCount, \"Invalid pet ID\");\n\n        return pets[petId].voteCount;\n    }\n\n    // Admin function to initialize pets and breeds\n    function initializeData(\n        string[] memory names,\n        uint[] memory ages,\n        uint[] memory breedIds,\n        string[] memory locations,\n        string[] memory images,\n        string[] memory breedNames\n    ) public {\n        // Initialize breeds\n        for (uint i = 0; i < breedNames.length; i++) {\n            breeds[i] = Breed(breedNames[i]);\n        }\n        breedCount = breedNames.length;\n\n        // Initialize pets\n        for (uint i = 0; i < names.length; i++) {\n            pets[i] = Pet(names[i], ages[i], breedIds[i], locations[i], images[i], address(0), 0);\n        }\n        petCount = names.length;\n    }\n}\n",
  "sourcePath": "D:/Projects/aps1050/A7/pet-shop-box-master/contracts/Adoption.sol",
  "compiler": {
    "name": "solc",
    "version": "0.5.16+commit.9c3226ce.Emscripten.clang"
  },
  "schemaVersion": "3.0.22",
  "updatedAt": "2024-12-12T08:20:07.016Z",
  "networkType": "ethereum",
  "devdoc": {
    "methods": {}
  },
  "userdoc": {
    "methods": {}
  }
}