{
  "contractName": "Adoption",
  "abi": [
    {
      "inputs": [],
      "payable": false,
      "stateMutability": "nonpayable",
      "type": "constructor"
    },
    {
      "constant": true,
      "inputs": [],
      "name": "addPetFee",
      "outputs": [
        {
          "internalType": "uint256",
          "name": "",
          "type": "uint256"
        }
      ],
      "payable": false,
      "stateMutability": "view",
      "type": "function"
    },
    {
      "constant": true,
      "inputs": [],
      "name": "adoptedCount",
      "outputs": [
        {
          "internalType": "uint256",
          "name": "",
          "type": "uint256"
        }
      ],
      "payable": false,
      "stateMutability": "view",
      "type": "function"
    },
    {
      "constant": true,
      "inputs": [
        {
          "internalType": "uint256",
          "name": "",
          "type": "uint256"
        }
      ],
      "name": "adoptedPets",
      "outputs": [
        {
          "internalType": "string",
          "name": "name",
          "type": "string"
        },
        {
          "internalType": "uint256",
          "name": "age",
          "type": "uint256"
        },
        {
          "internalType": "uint256",
          "name": "breedId",
          "type": "uint256"
        },
        {
          "internalType": "string",
          "name": "location",
          "type": "string"
        },
        {
          "internalType": "string",
          "name": "image",
          "type": "string"
        },
        {
          "internalType": "address",
          "name": "adopter",
          "type": "address"
        },
        {
          "internalType": "uint256",
          "name": "voteCount",
          "type": "uint256"
        }
      ],
      "payable": false,
      "stateMutability": "view",
      "type": "function"
    },
    {
      "constant": true,
      "inputs": [],
      "name": "breedCount",
      "outputs": [
        {
          "internalType": "uint256",
          "name": "",
          "type": "uint256"
        }
      ],
      "payable": false,
      "stateMutability": "view",
      "type": "function"
    },
    {
      "constant": true,
      "inputs": [
        {
          "internalType": "uint256",
          "name": "",
          "type": "uint256"
        }
      ],
      "name": "breeds",
      "outputs": [
        {
          "internalType": "string",
          "name": "name",
          "type": "string"
        }
      ],
      "payable": false,
      "stateMutability": "view",
      "type": "function"
    },
    {
      "constant": true,
      "inputs": [],
      "name": "owner",
      "outputs": [
        {
          "internalType": "address",
          "name": "",
          "type": "address"
        }
      ],
      "payable": false,
      "stateMutability": "view",
      "type": "function"
    },
    {
      "constant": true,
      "inputs": [],
      "name": "petCount",
      "outputs": [
        {
          "internalType": "uint256",
          "name": "",
          "type": "uint256"
        }
      ],
      "payable": false,
      "stateMutability": "view",
      "type": "function"
    },
    {
      "constant": true,
      "inputs": [
        {
          "internalType": "uint256",
          "name": "",
          "type": "uint256"
        }
      ],
      "name": "pets",
      "outputs": [
        {
          "internalType": "string",
          "name": "name",
          "type": "string"
        },
        {
          "internalType": "uint256",
          "name": "age",
          "type": "uint256"
        },
        {
          "internalType": "uint256",
          "name": "breedId",
          "type": "uint256"
        },
        {
          "internalType": "string",
          "name": "location",
          "type": "string"
        },
        {
          "internalType": "string",
          "name": "image",
          "type": "string"
        },
        {
          "internalType": "address",
          "name": "adopter",
          "type": "address"
        },
        {
          "internalType": "uint256",
          "name": "voteCount",
          "type": "uint256"
        }
      ],
      "payable": false,
      "stateMutability": "view",
      "type": "function"
    },
    {
      "constant": false,
      "inputs": [
        {
          "internalType": "uint256",
          "name": "petId",
          "type": "uint256"
        }
      ],
      "name": "adopt",
      "outputs": [
        {
          "internalType": "uint256",
          "name": "",
          "type": "uint256"
        }
      ],
      "payable": false,
      "stateMutability": "nonpayable",
      "type": "function"
    },
    {
      "constant": false,
      "inputs": [
        {
          "internalType": "uint256",
          "name": "petId",
          "type": "uint256"
        }
      ],
      "name": "returnPet",
      "outputs": [],
      "payable": true,
      "stateMutability": "payable",
      "type": "function"
    },
    {
      "constant": true,
      "inputs": [
        {
          "internalType": "uint256",
          "name": "adoptedPetId",
          "type": "uint256"
        }
      ],
      "name": "getAdoptedPet",
      "outputs": [
        {
          "internalType": "string",
          "name": "name",
          "type": "string"
        },
        {
          "internalType": "uint256",
          "name": "age",
          "type": "uint256"
        },
        {
          "internalType": "uint256",
          "name": "breedId",
          "type": "uint256"
        },
        {
          "internalType": "string",
          "name": "location",
          "type": "string"
        },
        {
          "internalType": "string",
          "name": "image",
          "type": "string"
        },
        {
          "internalType": "address",
          "name": "adopter",
          "type": "address"
        }
      ],
      "payable": false,
      "stateMutability": "view",
      "type": "function"
    },
    {
      "constant": false,
      "inputs": [
        {
          "internalType": "string",
          "name": "name",
          "type": "string"
        },
        {
          "internalType": "uint256",
          "name": "age",
          "type": "uint256"
        },
        {
          "internalType": "uint256",
          "name": "breedId",
          "type": "uint256"
        },
        {
          "internalType": "string",
          "name": "location",
          "type": "string"
        },
        {
          "internalType": "string",
          "name": "image",
          "type": "string"
        }
      ],
      "name": "addNewPet",
      "outputs": [],
      "payable": true,
      "stateMutability": "payable",
      "type": "function"
    },
    {
      "constant": false,
      "inputs": [],
      "name": "withdraw",
      "outputs": [],
      "payable": false,
      "stateMutability": "nonpayable",
      "type": "function"
    },
    {
      "constant": false,
      "inputs": [
        {
          "internalType": "string",
          "name": "name",
          "type": "string"
        }
      ],
      "name": "addBreed",
      "outputs": [],
      "payable": false,
      "stateMutability": "nonpayable",
      "type": "function"
    },
    {
      "constant": true,
      "inputs": [],
      "name": "getPetCount",
      "outputs": [
        {
          "internalType": "uint256",
          "name": "",
          "type": "uint256"
        }
      ],
      "payable": false,
      "stateMutability": "view",
      "type": "function"
    },
    {
      "constant": true,
      "inputs": [],
      "name": "getAdoptedCount",
      "outputs": [
        {
          "internalType": "uint256",
          "name": "",
          "type": "uint256"
        }
      ],
      "payable": false,
      "stateMutability": "view",
      "type": "function"
    },
    {
      "constant": true,
      "inputs": [],
      "name": "getAddPetFee",
      "outputs": [
        {
          "internalType": "uint256",
          "name": "",
          "type": "uint256"
        }
      ],
      "payable": false,
      "stateMutability": "view",
      "type": "function"
    },
    {
      "constant": true,
      "inputs": [
        {
          "internalType": "uint256",
          "name": "petId",
          "type": "uint256"
        }
      ],
      "name": "getPet",
      "outputs": [
        {
          "internalType": "string",
          "name": "name",
          "type": "string"
        },
        {
          "internalType": "uint256",
          "name": "age",
          "type": "uint256"
        },
        {
          "internalType": "uint256",
          "name": "breedId",
          "type": "uint256"
        },
        {
          "internalType": "string",
          "name": "location",
          "type": "string"
        },
        {
          "internalType": "string",
          "name": "image",
          "type": "string"
        },
        {
          "internalType": "address",
          "name": "adopter",
          "type": "address"
        }
      ],
      "payable": false,
      "stateMutability": "view",
      "type": "function"
    },
    {
      "constant": true,
      "inputs": [
        {
          "internalType": "uint256",
          "name": "breedId",
          "type": "uint256"
        }
      ],
      "name": "getBreed",
      "outputs": [
        {
          "internalType": "string",
          "name": "",
          "type": "string"
        }
      ],
      "payable": false,
      "stateMutability": "view",
      "type": "function"
    },
    {
      "constant": false,
      "inputs": [
        {
          "internalType": "uint256",
          "name": "petId",
          "type": "uint256"
        }
      ],
      "name": "voteForPet",
      "outputs": [],
      "payable": false,
      "stateMutability": "nonpayable",
      "type": "function"
    },
    {
      "constant": true,
      "inputs": [
        {
          "internalType": "uint256",
          "name": "petId",
          "type": "uint256"
        }
      ],
      "name": "getVoteCount",
      "outputs": [
        {
          "internalType": "uint256",
          "name": "",
          "type": "uint256"
        }
      ],
      "payable": false,
      "stateMutability": "view",
      "type": "function"
    },
    {
      "constant": false,
      "inputs": [
        {
          "internalType": "string[]",
          "name": "names",
          "type": "string[]"
        },
        {
          "internalType": "uint256[]",
          "name": "ages",
          "type": "uint256[]"
        },
        {
          "internalType": "uint256[]",
          "name": "breedIds",
          "type": "uint256[]"
        },
        {
          "internalType": "string[]",
          "name": "locations",
          "type": "string[]"
        },
        {
          "internalType": "string[]",
          "name": "images",
          "type": "string[]"
        },
        {
          "internalType": "string[]",
          "name": "breedNames",
          "type": "string[]"
        }
      ],
      "name": "initializeData",
      "outputs": [],
      "payable": false,
      "stateMutability": "nonpayable",
      "type": "function"
    }
  ],
  "bytecode": "0x608060405267016345785d8a000060005534801561001c57600080fd5b5073756574ae214517069f23287d81b1d30a7248f2f5600160006101000a81548173ffffffffffffffffffffffffffffffffffffffff021916908373ffffffffffffffffffffffffffffffffffffffff160217905550612e74806100816000396000f3fe6080604052600436106101355760003560e01c8063ab9e2b5d116100ab578063cd619f581161006f578063cd619f5814610432578063cfb869bf1461045d578063dd22d0c5146104a0578063e37bbc5e146104c9578063e608eb1f14610506578063f9e5e46e1461053157610135565b8063ab9e2b5d1461035a578063afa6184914610383578063b2c2f2e8146103ae578063ba42f426146103eb578063bdb92e8e1461041657610135565b8063535a30e4116100fd578063535a30e41461022657806354d84c031461026957806358e55d2d1461029457806359d55194146102b05780638588b2c5146102f25780638da5cb5b1461032f57610135565b806306d780661461013a5780632c0209f5146101655780633ccfd60b146101a25780633fc7a76c146101b95780634e8933de146101fb575b600080fd5b34801561014657600080fd5b5061014f61055a565b60405161015c9190612c74565b60405180910390f35b34801561017157600080fd5b5061018c6004803603610187919081019061266a565b610560565b6040516101999190612a16565b60405180910390f35b3480156101ae57600080fd5b506101b7610616565b005b3480156101c557600080fd5b506101e060048036036101db919081019061266a565b6106ef565b6040516101f296959493929190612a5a565b60405180910390f35b34801561020757600080fd5b506102106109b8565b60405161021d9190612c74565b60405180910390f35b34801561023257600080fd5b5061024d6004803603610248919081019061266a565b6109c2565b6040516102609796959493929190612ad0565b60405180910390f35b34801561027557600080fd5b5061027e610bec565b60405161028b9190612c74565b60405180910390f35b6102ae60048036036102a991908101906125ab565b610bf2565b005b3480156102bc57600080fd5b506102d760048036036102d2919081019061266a565b610db3565b6040516102e996959493929190612a5a565b60405180910390f35b3480156102fe57600080fd5b506103196004803603610314919081019061266a565b61107c565b6040516103269190612c74565b60405180910390f35b34801561033b57600080fd5b506103446114f1565b60405161035191906129fb565b60405180910390f35b34801561036657600080fd5b50610381600480360361037c919081019061256a565b611517565b005b34801561038f57600080fd5b50610398611570565b6040516103a59190612c74565b60405180910390f35b3480156103ba57600080fd5b506103d560048036036103d0919081019061266a565b61157a565b6040516103e29190612c74565b60405180910390f35b3480156103f757600080fd5b506104006115ea565b60405161040d9190612c74565b60405180910390f35b610430600480360361042b919081019061266a565b6115f3565b005b34801561043e57600080fd5b50610447611aa7565b6040516104549190612c74565b60405180910390f35b34801561046957600080fd5b50610484600480360361047f919081019061266a565b611aad565b6040516104979796959493929190612ad0565b60405180910390f35b3480156104ac57600080fd5b506104c760048036036104c2919081019061266a565b611cd7565b005b3480156104d557600080fd5b506104f060048036036104eb919081019061266a565b611df5565b6040516104fd9190612a38565b60405180910390f35b34801561051257600080fd5b5061051b611ead565b6040516105289190612c74565b60405180910390f35b34801561053d57600080fd5b5061055860048036036105539190810190612451565b611eb3565b005b60005481565b6003602052806000526040600020600091509050806000018054600181600116156101000203166002900480601f01602080910402602001604051908101604052809291908181526020018280546001816001161561010002031660029004801561060c5780601f106105e15761010080835404028352916020019161060c565b820191906000526020600020905b8154815290600101906020018083116105ef57829003601f168201915b5050505050905081565b600160009054906101000a900473ffffffffffffffffffffffffffffffffffffffff1673ffffffffffffffffffffffffffffffffffffffff163373ffffffffffffffffffffffffffffffffffffffff16146106a6576040517f08c379a000000000000000000000000000000000000000000000000000000000815260040161069d90612b54565b60405180910390fd5b3373ffffffffffffffffffffffffffffffffffffffff166108fc479081150290604051600060405180830381858888f193505050501580156106ec573d6000803e3d6000fd5b50565b606060008060608060006107016120d6565b600460008981526020019081526020016000206040518060e0016040529081600082018054600181600116156101000203166002900480601f0160208091040260200160405190810160405280929190818152602001828054600181600116156101000203166002900480156107b85780601f1061078d576101008083540402835291602001916107b8565b820191906000526020600020905b81548152906001019060200180831161079b57829003601f168201915b505050505081526020016001820154815260200160028201548152602001600382018054600181600116156101000203166002900480601f01602080910402602001604051908101604052809291908181526020018280546001816001161561010002031660029004801561086e5780601f106108435761010080835404028352916020019161086e565b820191906000526020600020905b81548152906001019060200180831161085157829003601f168201915b50505050508152602001600482018054600181600116156101000203166002900480601f0160208091040260200160405190810160405280929190818152602001828054600181600116156101000203166002900480156109105780601f106108e557610100808354040283529160200191610910565b820191906000526020600020905b8154815290600101906020018083116108f357829003601f168201915b505050505081526020016005820160009054906101000a900473ffffffffffffffffffffffffffffffffffffffff1673ffffffffffffffffffffffffffffffffffffffff1673ffffffffffffffffffffffffffffffffffffffff1681526020016006820154815250509050806000015181602001518260400151836060015184608001518560a001518595508292508191509650965096509650965096505091939550919395565b6000600754905090565b6004602052806000526040600020600091509050806000018054600181600116156101000203166002900480601f016020809104026020016040519081016040528092919081815260200182805460018160011615610100020316600290048015610a6e5780601f10610a4357610100808354040283529160200191610a6e565b820191906000526020600020905b815481529060010190602001808311610a5157829003601f168201915b505050505090806001015490806002015490806003018054600181600116156101000203166002900480601f016020809104026020016040519081016040528092919081815260200182805460018160011615610100020316600290048015610b185780601f10610aed57610100808354040283529160200191610b18565b820191906000526020600020905b815481529060010190602001808311610afb57829003601f168201915b505050505090806004018054600181600116156101000203166002900480601f016020809104026020016040519081016040528092919081815260200182805460018160011615610100020316600290048015610bb65780601f10610b8b57610100808354040283529160200191610bb6565b820191906000526020600020905b815481529060010190602001808311610b9957829003601f168201915b5050505050908060050160009054906101000a900473ffffffffffffffffffffffffffffffffffffffff16908060060154905087565b60055481565b600054341015610c37576040517f08c379a0000000000000000000000000000000000000000000000000000000008152600401610c2e90612b94565b60405180910390fd5b6006548310610c7b576040517f08c379a0000000000000000000000000000000000000000000000000000000008152600401610c7290612b74565b60405180910390fd5b6040518060e00160405280868152602001858152602001848152602001838152602001828152602001600073ffffffffffffffffffffffffffffffffffffffff16815260200160008152506002600060075481526020019081526020016000206000820151816000019080519060200190610cf7929190612129565b5060208201518160010155604082015181600201556060820151816003019080519060200190610d28929190612129565b506080820151816004019080519060200190610d45929190612129565b5060a08201518160050160006101000a81548173ffffffffffffffffffffffffffffffffffffffff021916908373ffffffffffffffffffffffffffffffffffffffff16021790555060c082015181600601559050506007600081548092919060010191905055505050505050565b60606000806060806000610dc56120d6565b600260008981526020019081526020016000206040518060e0016040529081600082018054600181600116156101000203166002900480601f016020809104026020016040519081016040528092919081815260200182805460018160011615610100020316600290048015610e7c5780601f10610e5157610100808354040283529160200191610e7c565b820191906000526020600020905b815481529060010190602001808311610e5f57829003601f168201915b505050505081526020016001820154815260200160028201548152602001600382018054600181600116156101000203166002900480601f016020809104026020016040519081016040528092919081815260200182805460018160011615610100020316600290048015610f325780601f10610f0757610100808354040283529160200191610f32565b820191906000526020600020905b815481529060010190602001808311610f1557829003601f168201915b50505050508152602001600482018054600181600116156101000203166002900480601f016020809104026020016040519081016040528092919081815260200182805460018160011615610100020316600290048015610fd45780601f10610fa957610100808354040283529160200191610fd4565b820191906000526020600020905b815481529060010190602001808311610fb757829003601f168201915b505050505081526020016005820160009054906101000a900473ffffffffffffffffffffffffffffffffffffffff1673ffffffffffffffffffffffffffffffffffffffff1673ffffffffffffffffffffffffffffffffffffffff1681526020016006820154815250509050806000015181602001518260400151836060015184608001518560a001518595508292508191509650965096509650965096505091939550919395565b600080821015801561108f575060075482105b6110ce576040517f08c379a00000000000000000000000000000000000000000000000000000000081526004016110c590612bd4565b60405180910390fd5b600073ffffffffffffffffffffffffffffffffffffffff166002600084815260200190815260200160002060050160009054906101000a900473ffffffffffffffffffffffffffffffffffffffff1673ffffffffffffffffffffffffffffffffffffffff1614611173576040517f08c379a000000000000000000000000000000000000000000000000000000000815260040161116a90612c34565b60405180910390fd5b336002600084815260200190815260200160002060050160006101000a81548173ffffffffffffffffffffffffffffffffffffffff021916908373ffffffffffffffffffffffffffffffffffffffff16021790555060026000838152602001908152602001600020600460006005548152602001908152602001600020600082018160000190805460018160011615610100020316600290046112179291906121a9565b506001820154816001015560028201548160020155600382018160030190805460018160011615610100020316600290046112539291906121a9565b506004820181600401908054600181600116156101000203166002900461127b9291906121a9565b506005820160009054906101000a900473ffffffffffffffffffffffffffffffffffffffff168160050160006101000a81548173ffffffffffffffffffffffffffffffffffffffff021916908373ffffffffffffffffffffffffffffffffffffffff1602179055506006820154816006015590505060056000815480929190600101919050555060008290505b60016007540381101561144b576002600060018301815260200190815260200160002060026000838152602001908152602001600020600082018160000190805460018160011615610100020316600290046113659291906121a9565b506001820154816001015560028201548160020155600382018160030190805460018160011615610100020316600290046113a19291906121a9565b50600482018160040190805460018160011615610100020316600290046113c99291906121a9565b506005820160009054906101000a900473ffffffffffffffffffffffffffffffffffffffff168160050160006101000a81548173ffffffffffffffffffffffffffffffffffffffff021916908373ffffffffffffffffffffffffffffffffffffffff160217905550600682015481600601559050508080600101915050611308565b50600260006001600754038152602001908152602001600020600080820160006114759190612230565b600182016000905560028201600090556003820160006114959190612230565b6004820160006114a59190612230565b6005820160006101000a81549073ffffffffffffffffffffffffffffffffffffffff02191690556006820160009055505060076000815480929190600190039190505550819050919050565b600160009054906101000a900473ffffffffffffffffffffffffffffffffffffffff1681565b6040518060200160405280828152506003600060065481526020019081526020016000206000820151816000019080519060200190611557929190612129565b5090505060066000815480929190600101919050555050565b6000600554905090565b600080821015801561158d575060075482105b6115cc576040517f08c379a00000000000000000000000000000000000000000000000000000000081526004016115c390612bb4565b60405180910390fd5b60026000838152602001908152602001600020600601549050919050565b60008054905090565b60008110158015611605575060055481105b611644576040517f08c379a000000000000000000000000000000000000000000000000000000000815260040161163b90612bb4565b60405180910390fd5b3373ffffffffffffffffffffffffffffffffffffffff166004600083815260200190815260200160002060050160009054906101000a900473ffffffffffffffffffffffffffffffffffffffff1673ffffffffffffffffffffffffffffffffffffffff16146116e8576040517f08c379a00000000000000000000000000000000000000000000000000000000081526004016116df90612bf4565b60405180910390fd5b60005434101561172d576040517f08c379a000000000000000000000000000000000000000000000000000000000815260040161172490612c54565b60405180910390fd5b60006004600083815260200190815260200160002060050160006101000a81548173ffffffffffffffffffffffffffffffffffffffff021916908373ffffffffffffffffffffffffffffffffffffffff16021790555060046000828152602001908152602001600020600260006007548152602001908152602001600020600082018160000190805460018160011615610100020316600290046117d29291906121a9565b5060018201548160010155600282015481600201556003820181600301908054600181600116156101000203166002900461180e9291906121a9565b50600482018160040190805460018160011615610100020316600290046118369291906121a9565b506005820160009054906101000a900473ffffffffffffffffffffffffffffffffffffffff168160050160006101000a81548173ffffffffffffffffffffffffffffffffffffffff021916908373ffffffffffffffffffffffffffffffffffffffff1602179055506006820154816006015590505060076000815480929190600101919050555060008190505b600160055403811015611a06576004600060018301815260200190815260200160002060046000838152602001908152602001600020600082018160000190805460018160011615610100020316600290046119209291906121a9565b5060018201548160010155600282015481600201556003820181600301908054600181600116156101000203166002900461195c9291906121a9565b50600482018160040190805460018160011615610100020316600290046119849291906121a9565b506005820160009054906101000a900473ffffffffffffffffffffffffffffffffffffffff168160050160006101000a81548173ffffffffffffffffffffffffffffffffffffffff021916908373ffffffffffffffffffffffffffffffffffffffff1602179055506006820154816006015590505080806001019150506118c3565b5060046000600160055403815260200190815260200160002060008082016000611a309190612230565b60018201600090556002820160009055600382016000611a509190612230565b600482016000611a609190612230565b6005820160006101000a81549073ffffffffffffffffffffffffffffffffffffffff0219169055600682016000905550506005600081548092919060019003919050555050565b60075481565b6002602052806000526040600020600091509050806000018054600181600116156101000203166002900480601f016020809104026020016040519081016040528092919081815260200182805460018160011615610100020316600290048015611b595780601f10611b2e57610100808354040283529160200191611b59565b820191906000526020600020905b815481529060010190602001808311611b3c57829003601f168201915b505050505090806001015490806002015490806003018054600181600116156101000203166002900480601f016020809104026020016040519081016040528092919081815260200182805460018160011615610100020316600290048015611c035780601f10611bd857610100808354040283529160200191611c03565b820191906000526020600020905b815481529060010190602001808311611be657829003601f168201915b505050505090806004018054600181600116156101000203166002900480601f016020809104026020016040519081016040528092919081815260200182805460018160011615610100020316600290048015611ca15780601f10611c7657610100808354040283529160200191611ca1565b820191906000526020600020905b815481529060010190602001808311611c8457829003601f168201915b5050505050908060050160009054906101000a900473ffffffffffffffffffffffffffffffffffffffff16908060060154905087565b60008110158015611ce9575060075481105b611d28576040517f08c379a0000000000000000000000000000000000000000000000000000000008152600401611d1f90612bb4565b60405180910390fd5b600073ffffffffffffffffffffffffffffffffffffffff166002600083815260200190815260200160002060050160009054906101000a900473ffffffffffffffffffffffffffffffffffffffff1673ffffffffffffffffffffffffffffffffffffffff1614611dcd576040517f08c379a0000000000000000000000000000000000000000000000000000000008152600401611dc490612c14565b60405180910390fd5b6001600260008381526020019081526020016000206006016000828254019250508190555050565b6060600360008381526020019081526020016000206000018054600181600116156101000203166002900480601f016020809104026020016040519081016040528092919081815260200182805460018160011615610100020316600290048015611ea15780601f10611e7657610100808354040283529160200191611ea1565b820191906000526020600020905b815481529060010190602001808311611e8457829003601f168201915b50505050509050919050565b60065481565b60008090505b8151811015611f24576040518060200160405280838381518110611ed957fe5b6020026020010151815250600360008381526020019081526020016000206000820151816000019080519060200190611f13929190612129565b509050508080600101915050611eb9565b50805160068190555060008090505b86518110156120c5576040518060e00160405280888381518110611f5357fe5b60200260200101518152602001878381518110611f6c57fe5b60200260200101518152602001868381518110611f8557fe5b60200260200101518152602001858381518110611f9e57fe5b60200260200101518152602001848381518110611fb757fe5b60200260200101518152602001600073ffffffffffffffffffffffffffffffffffffffff1681526020016000815250600260008381526020019081526020016000206000820151816000019080519060200190612015929190612129565b5060208201518160010155604082015181600201556060820151816003019080519060200190612046929190612129565b506080820151816004019080519060200190612063929190612129565b5060a08201518160050160006101000a81548173ffffffffffffffffffffffffffffffffffffffff021916908373ffffffffffffffffffffffffffffffffffffffff16021790555060c082015181600601559050508080600101915050611f33565b508551600781905550505050505050565b6040518060e001604052806060815260200160008152602001600081526020016060815260200160608152602001600073ffffffffffffffffffffffffffffffffffffffff168152602001600081525090565b828054600181600116156101000203166002900490600052602060002090601f016020900481019282601f1061216a57805160ff1916838001178555612198565b82800160010185558215612198579182015b8281111561219757825182559160200191906001019061217c565b5b5090506121a59190612278565b5090565b828054600181600116156101000203166002900490600052602060002090601f016020900481019282601f106121e2578054855561221f565b8280016001018555821561221f57600052602060002091601f016020900482015b8281111561221e578254825591600101919060010190612203565b5b50905061222c9190612278565b5090565b50805460018160011615610100020316600290046000825580601f106122565750612275565b601f0160209004906000526020600020908101906122749190612278565b5b50565b61229a91905b8082111561229657600081600090555060010161227e565b5090565b90565b600082601f8301126122ae57600080fd5b81356122c16122bc82612cbc565b612c8f565b9150818183526020840193506020810190508360005b8381101561230757813586016122ed8882612394565b8452602084019350602083019250506001810190506122d7565b5050505092915050565b600082601f83011261232257600080fd5b813561233561233082612ce4565b612c8f565b9150818183526020840193506020810190508385602084028201111561235a57600080fd5b60005b8381101561238a5781612370888261243c565b84526020840193506020830192505060018101905061235d565b5050505092915050565b600082601f8301126123a557600080fd5b81356123b86123b382612d0c565b612c8f565b915080825260208301602083018583830111156123d457600080fd5b6123df838284612dc7565b50505092915050565b600082601f8301126123f957600080fd5b813561240c61240782612d38565b612c8f565b9150808252602083016020830185838301111561242857600080fd5b612433838284612dc7565b50505092915050565b60008135905061244b81612e1a565b92915050565b60008060008060008060c0878903121561246a57600080fd5b600087013567ffffffffffffffff81111561248457600080fd5b61249089828a0161229d565b965050602087013567ffffffffffffffff8111156124ad57600080fd5b6124b989828a01612311565b955050604087013567ffffffffffffffff8111156124d657600080fd5b6124e289828a01612311565b945050606087013567ffffffffffffffff8111156124ff57600080fd5b61250b89828a0161229d565b935050608087013567ffffffffffffffff81111561252857600080fd5b61253489828a0161229d565b92505060a087013567ffffffffffffffff81111561255157600080fd5b61255d89828a0161229d565b9150509295509295509295565b60006020828403121561257c57600080fd5b600082013567ffffffffffffffff81111561259657600080fd5b6125a2848285016123e8565b91505092915050565b600080600080600060a086880312156125c357600080fd5b600086013567ffffffffffffffff8111156125dd57600080fd5b6125e9888289016123e8565b95505060206125fa8882890161243c565b945050604061260b8882890161243c565b935050606086013567ffffffffffffffff81111561262857600080fd5b612634888289016123e8565b925050608086013567ffffffffffffffff81111561265157600080fd5b61265d888289016123e8565b9150509295509295909350565b60006020828403121561267c57600080fd5b600061268a8482850161243c565b91505092915050565b61269c81612d8b565b82525050565b60006126ad82612d6f565b6126b78185612d7a565b93506126c7818560208601612dd6565b6126d081612e09565b840191505092915050565b60006126e682612d64565b6126f08185612d7a565b9350612700818560208601612dd6565b61270981612e09565b840191505092915050565b6000612721602183612d7a565b91507f4f6e6c7920746865206f776e65722063616e2077697468647261772066756e6460008301527f73000000000000000000000000000000000000000000000000000000000000006020830152604082019050919050565b6000612787601083612d7a565b91507f496e76616c6964206272656564204944000000000000000000000000000000006000830152602082019050919050565b60006127c7602c83612d7a565b91507f496e73756666696369656e742045746865722073656e7420666f72206164646960008301527f6e672061206e65772070657400000000000000000000000000000000000000006020830152604082019050919050565b600061282d600e83612d7a565b91507f496e76616c6964207065742049440000000000000000000000000000000000006000830152602082019050919050565b600061286d600d83612d7a565b91507f496e76616c6964207065744964000000000000000000000000000000000000006000830152602082019050919050565b60006128ad602383612d7a565b91507f4f6e6c79207468652061646f707465722063616e2072657475726e207468652060008301527f70657400000000000000000000000000000000000000000000000000000000006020830152604082019050919050565b6000612913601c83612d7a565b91507f43616e6e6f7420766f746520666f722061646f707465642070657473000000006000830152602082019050919050565b6000612953601383612d7a565b91507f50657420616c72656164792061646f70746564000000000000000000000000006000830152602082019050919050565b6000612993602283612d7a565b91507f496e73756666696369656e742045746865722073656e7420666f72207265747560008301527f726e0000000000000000000000000000000000000000000000000000000000006020830152604082019050919050565b6129f581612dbd565b82525050565b6000602082019050612a106000830184612693565b92915050565b60006020820190508181036000830152612a3081846126db565b905092915050565b60006020820190508181036000830152612a5281846126a2565b905092915050565b600060c0820190508181036000830152612a7481896126a2565b9050612a8360208301886129ec565b612a9060408301876129ec565b8181036060830152612aa281866126a2565b90508181036080830152612ab681856126a2565b9050612ac560a0830184612693565b979650505050505050565b600060e0820190508181036000830152612aea818a6126db565b9050612af960208301896129ec565b612b0660408301886129ec565b8181036060830152612b1881876126db565b90508181036080830152612b2c81866126db565b9050612b3b60a0830185612693565b612b4860c08301846129ec565b98975050505050505050565b60006020820190508181036000830152612b6d81612714565b9050919050565b60006020820190508181036000830152612b8d8161277a565b9050919050565b60006020820190508181036000830152612bad816127ba565b9050919050565b60006020820190508181036000830152612bcd81612820565b9050919050565b60006020820190508181036000830152612bed81612860565b9050919050565b60006020820190508181036000830152612c0d816128a0565b9050919050565b60006020820190508181036000830152612c2d81612906565b9050919050565b60006020820190508181036000830152612c4d81612946565b9050919050565b60006020820190508181036000830152612c6d81612986565b9050919050565b6000602082019050612c8960008301846129ec565b92915050565b6000604051905081810181811067ffffffffffffffff82111715612cb257600080fd5b8060405250919050565b600067ffffffffffffffff821115612cd357600080fd5b602082029050602081019050919050565b600067ffffffffffffffff821115612cfb57600080fd5b602082029050602081019050919050565b600067ffffffffffffffff821115612d2357600080fd5b601f19601f8301169050602081019050919050565b600067ffffffffffffffff821115612d4f57600080fd5b601f19601f8301169050602081019050919050565b600081519050919050565b600081519050919050565b600082825260208201905092915050565b6000612d9682612d9d565b9050919050565b600073ffffffffffffffffffffffffffffffffffffffff82169050919050565b6000819050919050565b82818337600083830152505050565b60005b83811015612df4578082015181840152602081019050612dd9565b83811115612e03576000848401525b50505050565b6000601f19601f8301169050919050565b612e2381612dbd565b8114612e2e57600080fd5b5056fea365627a7a72315820a85b6589495c0fa12d851c4d59398a1d5bfc74cf3cd618051f50f89ad026d43f6c6578706572696d656e74616cf564736f6c63430005100040",
  "source": "pragma solidity ^0.5.0;\npragma experimental ABIEncoderV2;\n\ncontract Adoption {\n    struct Pet {\n        string name;\n        uint age;\n        uint breedId;\n        string location;\n        string image; // URL or IPFS hash for the pet's image\n        address adopter;\n        uint voteCount; // Add vote count\n    }\n\n    struct Breed {\n        string name;\n    }\n\n    uint public addPetFee = 0.1 ether; // Fee for adding a new pet\n    address public owner;\n\n    constructor() public {\n        owner = 0x756574ae214517069F23287d81b1D30A7248F2F5; // has a fixed address\n    }\n\n    mapping(uint => Pet) public pets; // Mapping of petId to Pet details\n    mapping(uint => Breed) public breeds; // Mapping of breedId to Breed details\n    mapping(uint => Pet) public adoptedPets; // Store adopted pets\n    uint public adoptedCount; // Keep track of the number of adopted pets\n    uint public breedCount; // Number of breeds\n    uint public petCount;   // Number of pets\n\n    // Adopting a pet\n    function adopt(uint petId) public returns (uint) {\n        require(petId >= 0 && petId < petCount, \"Invalid petId\");\n        require(pets[petId].adopter == address(0), \"Pet already adopted\");\n\n        pets[petId].adopter = msg.sender;\n\n        // Move pet to adoptedPets mapping\n        adoptedPets[adoptedCount] = pets[petId];\n        adoptedCount++;\n\n        // Shift the remaining IDs to fill the gap\n        for (uint j = petId; j < petCount - 1; j++) {\n            pets[j] = pets[j + 1];\n        }\n        delete pets[petCount - 1];\n        petCount--;\n\n        return petId;\n    }\n\n    function returnPet(uint petId) public payable {\n        require(petId >= 0 && petId < adoptedCount, \"Invalid pet ID\");\n        require(adoptedPets[petId].adopter == msg.sender, \"Only the adopter can return the pet\");\n        require(msg.value >= addPetFee, \"Insufficient Ether sent for return\");\n\n        // Remove the adopter\n        adoptedPets[petId].adopter = address(0);\n\n        // Add the pet back to the available list\n        pets[petCount] = adoptedPets[petId];\n        petCount++;\n\n        for (uint j = petId; j < adoptedCount - 1; j++) {\n            adoptedPets[j] = adoptedPets[j + 1];\n        }\n        delete adoptedPets[adoptedCount - 1];\n        adoptedCount--;\n\n    }\n\n    function getAdoptedPet(uint adoptedPetId) public view returns (\n        string memory name,\n        uint age,\n        uint breedId,\n        string memory location,\n        string memory image,\n        address adopter\n    ) {\n        Pet memory pet = adoptedPets[adoptedPetId];\n        return (pet.name, pet.age, pet.breedId, pet.location, pet.image, pet.adopter);\n    }\n\n\n    function addNewPet(\n        string memory name,\n        uint age,\n        uint breedId,\n        string memory location,\n        string memory image\n    ) public payable {\n        require(msg.value >= addPetFee, \"Insufficient Ether sent for adding a new pet\");\n        require(breedId < breedCount, \"Invalid breed ID\");\n\n        // Add new pet to the pets mapping\n        pets[petCount] = Pet(name, age, breedId, location, image, address(0), 0);\n        petCount++;\n    }\n\n    function withdraw() public {\n        require(msg.sender == owner, \"Only the owner can withdraw funds\");\n        msg.sender.transfer(address(this).balance);\n    }\n\n    function addBreed(string memory name) public {\n        breeds[breedCount] = Breed(name);\n        breedCount++;\n    }\n\n    // Get the total number of pets\n    function getPetCount() public view returns (uint) {\n        return petCount;\n    }\n\n    function getAdoptedCount() public view returns (uint) {\n        return adoptedCount;\n    }\n\n    function getAddPetFee() public view returns (uint) {\n        return addPetFee;\n    }\n\n    // Retrieve all pet details\n    function getPet(uint petId) public view returns (\n        string memory name,\n        uint age,\n        uint breedId,\n        string memory location,\n        string memory image,\n        address adopter\n    ) {\n        Pet memory pet = pets[petId];\n        return (pet.name, pet.age, pet.breedId, pet.location, pet.image, pet.adopter);\n    }\n\n    // Retrieve breed name\n    function getBreed(uint breedId) public view returns (string memory) {\n        return breeds[breedId].name;\n    }\n\n    function voteForPet(uint petId) public {\n        require(petId >= 0 && petId < petCount, \"Invalid pet ID\");\n        require(pets[petId].adopter == address(0), \"Cannot vote for adopted pets\");\n\n        pets[petId].voteCount += 1;\n    }\n\n    function getVoteCount(uint petId) public view returns (uint) {\n        require(petId >= 0 && petId < petCount, \"Invalid pet ID\");\n\n        return pets[petId].voteCount;\n    }\n\n    // Admin function to initialize pets and breeds\n    function initializeData(\n        string[] memory names,\n        uint[] memory ages,\n        uint[] memory breedIds,\n        string[] memory locations,\n        string[] memory images,\n        string[] memory breedNames\n    ) public {\n        // Initialize breeds\n        for (uint i = 0; i < breedNames.length; i++) {\n            breeds[i] = Breed(breedNames[i]);\n        }\n        breedCount = breedNames.length;\n\n        // Initialize pets\n        for (uint i = 0; i < names.length; i++) {\n            pets[i] = Pet(names[i], ages[i], breedIds[i], locations[i], images[i], address(0), 0);\n        }\n        petCount = names.length;\n    }\n}\n",
  "sourcePath": "D:/Projects/aps1050/A7/pet-shop-box-master/contracts/Adoption.sol",
  "compiler": {
    "name": "solc",
    "version": "0.5.16+commit.9c3226ce.Emscripten.clang"
  },
  "schemaVersion": "3.0.22",
  "updatedAt": "2024-12-12T08:37:34.057Z",
  "networkType": "ethereum",
  "devdoc": {
    "methods": {}
  },
  "userdoc": {
    "methods": {}
  }
}