{
  "contractName": "Adoption",
  "abi": [
    {
      "constant": true,
      "inputs": [],
      "name": "breedCount",
      "outputs": [
        {
          "internalType": "uint256",
          "name": "",
          "type": "uint256"
        }
      ],
      "payable": false,
      "stateMutability": "view",
      "type": "function"
    },
    {
      "constant": true,
      "inputs": [
        {
          "internalType": "uint256",
          "name": "",
          "type": "uint256"
        }
      ],
      "name": "breeds",
      "outputs": [
        {
          "internalType": "string",
          "name": "name",
          "type": "string"
        }
      ],
      "payable": false,
      "stateMutability": "view",
      "type": "function"
    },
    {
      "constant": true,
      "inputs": [],
      "name": "petCount",
      "outputs": [
        {
          "internalType": "uint256",
          "name": "",
          "type": "uint256"
        }
      ],
      "payable": false,
      "stateMutability": "view",
      "type": "function"
    },
    {
      "constant": true,
      "inputs": [
        {
          "internalType": "uint256",
          "name": "",
          "type": "uint256"
        }
      ],
      "name": "pets",
      "outputs": [
        {
          "internalType": "string",
          "name": "name",
          "type": "string"
        },
        {
          "internalType": "uint256",
          "name": "age",
          "type": "uint256"
        },
        {
          "internalType": "uint256",
          "name": "breedId",
          "type": "uint256"
        },
        {
          "internalType": "string",
          "name": "location",
          "type": "string"
        },
        {
          "internalType": "string",
          "name": "image",
          "type": "string"
        },
        {
          "internalType": "address",
          "name": "adopter",
          "type": "address"
        }
      ],
      "payable": false,
      "stateMutability": "view",
      "type": "function"
    },
    {
      "constant": false,
      "inputs": [
        {
          "internalType": "uint256",
          "name": "petId",
          "type": "uint256"
        }
      ],
      "name": "adopt",
      "outputs": [
        {
          "internalType": "uint256",
          "name": "",
          "type": "uint256"
        }
      ],
      "payable": false,
      "stateMutability": "nonpayable",
      "type": "function"
    },
    {
      "constant": false,
      "inputs": [
        {
          "internalType": "string",
          "name": "name",
          "type": "string"
        },
        {
          "internalType": "uint256",
          "name": "age",
          "type": "uint256"
        },
        {
          "internalType": "uint256",
          "name": "breedId",
          "type": "uint256"
        },
        {
          "internalType": "string",
          "name": "location",
          "type": "string"
        },
        {
          "internalType": "string",
          "name": "image",
          "type": "string"
        }
      ],
      "name": "addPet",
      "outputs": [],
      "payable": false,
      "stateMutability": "nonpayable",
      "type": "function"
    },
    {
      "constant": false,
      "inputs": [
        {
          "internalType": "string",
          "name": "name",
          "type": "string"
        }
      ],
      "name": "addBreed",
      "outputs": [],
      "payable": false,
      "stateMutability": "nonpayable",
      "type": "function"
    },
    {
      "constant": true,
      "inputs": [],
      "name": "getPetCount",
      "outputs": [
        {
          "internalType": "uint256",
          "name": "",
          "type": "uint256"
        }
      ],
      "payable": false,
      "stateMutability": "view",
      "type": "function"
    },
    {
      "constant": true,
      "inputs": [
        {
          "internalType": "uint256",
          "name": "petId",
          "type": "uint256"
        }
      ],
      "name": "getPet",
      "outputs": [
        {
          "internalType": "string",
          "name": "name",
          "type": "string"
        },
        {
          "internalType": "uint256",
          "name": "age",
          "type": "uint256"
        },
        {
          "internalType": "uint256",
          "name": "breedId",
          "type": "uint256"
        },
        {
          "internalType": "string",
          "name": "location",
          "type": "string"
        },
        {
          "internalType": "string",
          "name": "image",
          "type": "string"
        },
        {
          "internalType": "address",
          "name": "adopter",
          "type": "address"
        }
      ],
      "payable": false,
      "stateMutability": "view",
      "type": "function"
    },
    {
      "constant": true,
      "inputs": [
        {
          "internalType": "uint256",
          "name": "breedId",
          "type": "uint256"
        }
      ],
      "name": "getBreed",
      "outputs": [
        {
          "internalType": "string",
          "name": "",
          "type": "string"
        }
      ],
      "payable": false,
      "stateMutability": "view",
      "type": "function"
    },
    {
      "constant": false,
      "inputs": [
        {
          "internalType": "string[]",
          "name": "names",
          "type": "string[]"
        },
        {
          "internalType": "uint256[]",
          "name": "ages",
          "type": "uint256[]"
        },
        {
          "internalType": "uint256[]",
          "name": "breedIds",
          "type": "uint256[]"
        },
        {
          "internalType": "string[]",
          "name": "locations",
          "type": "string[]"
        },
        {
          "internalType": "string[]",
          "name": "images",
          "type": "string[]"
        },
        {
          "internalType": "string[]",
          "name": "breedNames",
          "type": "string[]"
        }
      ],
      "name": "initializeData",
      "outputs": [],
      "payable": false,
      "stateMutability": "nonpayable",
      "type": "function"
    }
  ],
  "bytecode": "0x608060405234801561001057600080fd5b50611705806100206000396000f3fe608060405234801561001057600080fd5b50600436106100a95760003560e01c8063ab9e2b5d11610071578063ab9e2b5d1461017d578063cd619f5814610199578063cfb869bf146101b7578063e37bbc5e146101ec578063e608eb1f1461021c578063f9e5e46e1461023a576100a9565b80630b7dee80146100ae5780632c0209f5146100ca5780634e8933de146100fa57806359d55194146101185780638588b2c51461014d575b600080fd5b6100c860048036036100c3919081019061119d565b610256565b005b6100e460048036036100df919081019061125c565b61037c565b6040516100f19190611395565b60405180910390f35b610102610432565b60405161010f9190611505565b60405180910390f35b610132600480360361012d919081019061125c565b61043c565b604051610144969594939291906113d9565b60405180910390f35b6101676004803603610162919081019061125c565b6106fa565b6040516101749190611505565b60405180910390f35b6101976004803603610192919081019061115c565b61084c565b005b6101a16108a5565b6040516101ae9190611505565b60405180910390f35b6101d160048036036101cc919081019061125c565b6108ab565b6040516101e39695949392919061144f565b60405180910390f35b6102066004803603610201919081019061125c565b610acf565b60405161021391906113b7565b60405180910390f35b610224610b87565b6040516102319190611505565b60405180910390f35b610254600480360361024f9190810190611043565b610b8d565b005b6040518060c00160405280868152602001858152602001848152602001838152602001828152602001600073ffffffffffffffffffffffffffffffffffffffff16815250600080600354815260200190815260200160002060008201518160000190805190602001906102ca929190610d9e565b50602082015181600101556040820151816002015560608201518160030190805190602001906102fb929190610d9e565b506080820151816004019080519060200190610318929190610d9e565b5060a08201518160050160006101000a81548173ffffffffffffffffffffffffffffffffffffffff021916908373ffffffffffffffffffffffffffffffffffffffff1602179055509050506003600081548092919060010191905055505050505050565b6001602052806000526040600020600091509050806000018054600181600116156101000203166002900480601f0160208091040260200160405190810160405280929190818152602001828054600181600116156101000203166002900480156104285780601f106103fd57610100808354040283529160200191610428565b820191906000526020600020905b81548152906001019060200180831161040b57829003601f168201915b5050505050905081565b6000600354905090565b6060600080606080600061044e610e1e565b6000808981526020019081526020016000206040518060c0016040529081600082018054600181600116156101000203166002900480601f0160208091040260200160405190810160405280929190818152602001828054600181600116156101000203166002900480156105045780601f106104d957610100808354040283529160200191610504565b820191906000526020600020905b8154815290600101906020018083116104e757829003601f168201915b505050505081526020016001820154815260200160028201548152602001600382018054600181600116156101000203166002900480601f0160208091040260200160405190810160405280929190818152602001828054600181600116156101000203166002900480156105ba5780601f1061058f576101008083540402835291602001916105ba565b820191906000526020600020905b81548152906001019060200180831161059d57829003601f168201915b50505050508152602001600482018054600181600116156101000203166002900480601f01602080910402602001604051908101604052809291908181526020018280546001816001161561010002031660029004801561065c5780601f106106315761010080835404028352916020019161065c565b820191906000526020600020905b81548152906001019060200180831161063f57829003601f168201915b505050505081526020016005820160009054906101000a900473ffffffffffffffffffffffffffffffffffffffff1673ffffffffffffffffffffffffffffffffffffffff1673ffffffffffffffffffffffffffffffffffffffff16815250509050806000015181602001518260400151836060015184608001518560a001518595508292508191509650965096509650965096505091939550919395565b600080821015801561070d575060035482105b61074c576040517f08c379a0000000000000000000000000000000000000000000000000000000008152600401610743906114c5565b60405180910390fd5b600073ffffffffffffffffffffffffffffffffffffffff1660008084815260200190815260200160002060050160009054906101000a900473ffffffffffffffffffffffffffffffffffffffff1673ffffffffffffffffffffffffffffffffffffffff16146107f0576040517f08c379a00000000000000000000000000000000000000000000000000000000081526004016107e7906114e5565b60405180910390fd5b3360008084815260200190815260200160002060050160006101000a81548173ffffffffffffffffffffffffffffffffffffffff021916908373ffffffffffffffffffffffffffffffffffffffff160217905550819050919050565b604051806020016040528082815250600160006002548152602001908152602001600020600082015181600001908051906020019061088c929190610d9e565b5090505060026000815480929190600101919050555050565b60035481565b6000602052806000526040600020600091509050806000018054600181600116156101000203166002900480601f0160208091040260200160405190810160405280929190818152602001828054600181600116156101000203166002900480156109575780601f1061092c57610100808354040283529160200191610957565b820191906000526020600020905b81548152906001019060200180831161093a57829003601f168201915b505050505090806001015490806002015490806003018054600181600116156101000203166002900480601f016020809104026020016040519081016040528092919081815260200182805460018160011615610100020316600290048015610a015780601f106109d657610100808354040283529160200191610a01565b820191906000526020600020905b8154815290600101906020018083116109e457829003601f168201915b505050505090806004018054600181600116156101000203166002900480601f016020809104026020016040519081016040528092919081815260200182805460018160011615610100020316600290048015610a9f5780601f10610a7457610100808354040283529160200191610a9f565b820191906000526020600020905b815481529060010190602001808311610a8257829003601f168201915b5050505050908060050160009054906101000a900473ffffffffffffffffffffffffffffffffffffffff16905086565b6060600160008381526020019081526020016000206000018054600181600116156101000203166002900480601f016020809104026020016040519081016040528092919081815260200182805460018160011615610100020316600290048015610b7b5780601f10610b5057610100808354040283529160200191610b7b565b820191906000526020600020905b815481529060010190602001808311610b5e57829003601f168201915b50505050509050919050565b60025481565b60008090505b8151811015610bfe576040518060200160405280838381518110610bb357fe5b6020026020010151815250600160008381526020019081526020016000206000820151816000019080519060200190610bed929190610d9e565b509050508080600101915050610b93565b50805160028190555060008090505b8651811015610d8d576040518060c00160405280888381518110610c2d57fe5b60200260200101518152602001878381518110610c4657fe5b60200260200101518152602001868381518110610c5f57fe5b60200260200101518152602001858381518110610c7857fe5b60200260200101518152602001848381518110610c9157fe5b60200260200101518152602001600073ffffffffffffffffffffffffffffffffffffffff168152506000808381526020019081526020016000206000820151816000019080519060200190610ce7929190610d9e565b5060208201518160010155604082015181600201556060820151816003019080519060200190610d18929190610d9e565b506080820151816004019080519060200190610d35929190610d9e565b5060a08201518160050160006101000a81548173ffffffffffffffffffffffffffffffffffffffff021916908373ffffffffffffffffffffffffffffffffffffffff1602179055509050508080600101915050610c0d565b508551600381905550505050505050565b828054600181600116156101000203166002900490600052602060002090601f016020900481019282601f10610ddf57805160ff1916838001178555610e0d565b82800160010185558215610e0d579182015b82811115610e0c578251825591602001919060010190610df1565b5b509050610e1a9190610e6a565b5090565b6040518060c001604052806060815260200160008152602001600081526020016060815260200160608152602001600073ffffffffffffffffffffffffffffffffffffffff1681525090565b610e8c91905b80821115610e88576000816000905550600101610e70565b5090565b90565b600082601f830112610ea057600080fd5b8135610eb3610eae8261154d565b611520565b9150818183526020840193506020810190508360005b83811015610ef95781358601610edf8882610f86565b845260208401935060208301925050600181019050610ec9565b5050505092915050565b600082601f830112610f1457600080fd5b8135610f27610f2282611575565b611520565b91508181835260208401935060208101905083856020840282011115610f4c57600080fd5b60005b83811015610f7c5781610f62888261102e565b845260208401935060208301925050600181019050610f4f565b5050505092915050565b600082601f830112610f9757600080fd5b8135610faa610fa58261159d565b611520565b91508082526020830160208301858383011115610fc657600080fd5b610fd1838284611658565b50505092915050565b600082601f830112610feb57600080fd5b8135610ffe610ff9826115c9565b611520565b9150808252602083016020830185838301111561101a57600080fd5b611025838284611658565b50505092915050565b60008135905061103d816116ab565b92915050565b60008060008060008060c0878903121561105c57600080fd5b600087013567ffffffffffffffff81111561107657600080fd5b61108289828a01610e8f565b965050602087013567ffffffffffffffff81111561109f57600080fd5b6110ab89828a01610f03565b955050604087013567ffffffffffffffff8111156110c857600080fd5b6110d489828a01610f03565b945050606087013567ffffffffffffffff8111156110f157600080fd5b6110fd89828a01610e8f565b935050608087013567ffffffffffffffff81111561111a57600080fd5b61112689828a01610e8f565b92505060a087013567ffffffffffffffff81111561114357600080fd5b61114f89828a01610e8f565b9150509295509295509295565b60006020828403121561116e57600080fd5b600082013567ffffffffffffffff81111561118857600080fd5b61119484828501610fda565b91505092915050565b600080600080600060a086880312156111b557600080fd5b600086013567ffffffffffffffff8111156111cf57600080fd5b6111db88828901610fda565b95505060206111ec8882890161102e565b94505060406111fd8882890161102e565b935050606086013567ffffffffffffffff81111561121a57600080fd5b61122688828901610fda565b925050608086013567ffffffffffffffff81111561124357600080fd5b61124f88828901610fda565b9150509295509295909350565b60006020828403121561126e57600080fd5b600061127c8482850161102e565b91505092915050565b61128e8161161c565b82525050565b600061129f82611600565b6112a9818561160b565b93506112b9818560208601611667565b6112c28161169a565b840191505092915050565b60006112d8826115f5565b6112e2818561160b565b93506112f2818560208601611667565b6112fb8161169a565b840191505092915050565b6000611313600d8361160b565b91507f496e76616c6964207065744964000000000000000000000000000000000000006000830152602082019050919050565b600061135360138361160b565b91507f50657420616c72656164792061646f70746564000000000000000000000000006000830152602082019050919050565b61138f8161164e565b82525050565b600060208201905081810360008301526113af81846112cd565b905092915050565b600060208201905081810360008301526113d18184611294565b905092915050565b600060c08201905081810360008301526113f38189611294565b90506114026020830188611386565b61140f6040830187611386565b81810360608301526114218186611294565b905081810360808301526114358185611294565b905061144460a0830184611285565b979650505050505050565b600060c082019050818103600083015261146981896112cd565b90506114786020830188611386565b6114856040830187611386565b818103606083015261149781866112cd565b905081810360808301526114ab81856112cd565b90506114ba60a0830184611285565b979650505050505050565b600060208201905081810360008301526114de81611306565b9050919050565b600060208201905081810360008301526114fe81611346565b9050919050565b600060208201905061151a6000830184611386565b92915050565b6000604051905081810181811067ffffffffffffffff8211171561154357600080fd5b8060405250919050565b600067ffffffffffffffff82111561156457600080fd5b602082029050602081019050919050565b600067ffffffffffffffff82111561158c57600080fd5b602082029050602081019050919050565b600067ffffffffffffffff8211156115b457600080fd5b601f19601f8301169050602081019050919050565b600067ffffffffffffffff8211156115e057600080fd5b601f19601f8301169050602081019050919050565b600081519050919050565b600081519050919050565b600082825260208201905092915050565b60006116278261162e565b9050919050565b600073ffffffffffffffffffffffffffffffffffffffff82169050919050565b6000819050919050565b82818337600083830152505050565b60005b8381101561168557808201518184015260208101905061166a565b83811115611694576000848401525b50505050565b6000601f19601f8301169050919050565b6116b48161164e565b81146116bf57600080fd5b5056fea365627a7a72315820071aaa86fa5d85230e535c135b0ba48dce54eeaabaa7fcfa0ba3e4cd39b691776c6578706572696d656e74616cf564736f6c63430005100040",
  "source": "pragma solidity ^0.5.0;\npragma experimental ABIEncoderV2;\n\ncontract Adoption {\n    struct Pet {\n        string name;\n        uint age;\n        uint breedId;\n        string location;\n        string image; // URL or IPFS hash for the pet's image\n        address adopter;\n    }\n\n    struct Breed {\n        string name;\n    }\n\n    mapping(uint => Pet) public pets; // Mapping of petId to Pet details\n    mapping(uint => Breed) public breeds; // Mapping of breedId to Breed details\n    uint public breedCount; // Number of breeds\n    uint public petCount;   // Number of pets\n\n    // Adopting a pet\n    function adopt(uint petId) public returns (uint) {\n        require(petId >= 0 && petId < petCount, \"Invalid petId\");\n        require(pets[petId].adopter == address(0), \"Pet already adopted\");\n\n        pets[petId].adopter = msg.sender;\n\n        return petId;\n    }\n\n    function addPet(\n        string memory name,\n        uint age,\n        uint breedId,\n        string memory location,\n        string memory image\n    ) public {\n        pets[petCount] = Pet(name, age, breedId, location, image, address(0));\n        petCount++;\n    }\n\n    function addBreed(string memory name) public {\n        breeds[breedCount] = Breed(name);\n        breedCount++;\n    }\n\n    // Get the total number of pets\n    function getPetCount() public view returns (uint) {\n        return petCount;\n    }\n\n    // Retrieve all pet details\n    function getPet(uint petId) public view returns (\n        string memory name,\n        uint age,\n        uint breedId,\n        string memory location,\n        string memory image,\n        address adopter\n    ) {\n        Pet memory pet = pets[petId];\n        return (pet.name, pet.age, pet.breedId, pet.location, pet.image, pet.adopter);\n    }\n\n    // Retrieve breed name\n    function getBreed(uint breedId) public view returns (string memory) {\n        return breeds[breedId].name;\n    }\n\n    // Admin function to initialize pets and breeds\n    function initializeData(\n        string[] memory names,\n        uint[] memory ages,\n        uint[] memory breedIds,\n        string[] memory locations,\n        string[] memory images,\n        string[] memory breedNames\n    ) public {\n        // Initialize breeds\n        for (uint i = 0; i < breedNames.length; i++) {\n            breeds[i] = Breed(breedNames[i]);\n        }\n        breedCount = breedNames.length;\n\n        // Initialize pets\n        for (uint i = 0; i < names.length; i++) {\n            pets[i] = Pet(names[i], ages[i], breedIds[i], locations[i], images[i], address(0));\n        }\n        petCount = names.length;\n    }\n}\n",
  "sourcePath": "D:/Projects/aps1050/A7/pet-shop-box-master/contracts/Adoption.sol",
  "compiler": {
    "name": "solc",
    "version": "0.5.16+commit.9c3226ce.Emscripten.clang"
  },
  "schemaVersion": "3.0.22",
  "updatedAt": "2024-12-12T05:42:38.432Z",
  "networkType": "ethereum",
  "devdoc": {
    "methods": {}
  },
  "userdoc": {
    "methods": {}
  }
}